:100000000C942A000C9446090C9473090C94A009D2
:100010000C9447000C9447000C9447000C94470044
:100020000C9447000C9447000C9447000C94470034
:100030000C9447000C9447000C9447000C94470024
:100040000C94C00E0C9447000C9447000C9447008D
:100050000C94470011241FBECFE5D8E0DEBFCDBF12
:1000600011E0A0E6B0E0E4E3F1E302C005900D92F8
:10007000AC36B107D9F711E0ACE6B1E001C01D9292
:10008000A437B107E1F70E9487170C9498180C94D5
:100090000000EF92FF920F931F937B018C0120E0F1
:1000A00030E040E05FE40E94F50388238CF0C80153
:1000B000B70120E030E040E05FE40E94C1010E940F
:1000C00055049B01AC01205030404040504806C0D0
:1000D000C801B7010E9455049B01AC01B901CA01D6
:1000E0001F910F91FF90EF900895A0E0B0E0EBE733
:1000F000F0E00C946118DC012B01FA019C91923024
:1001000008F439C1EB018881823008F433C194309E
:1001100069F4843009F02FC111969C91119789815F
:10012000981709F428C1A0E6B0E025C1843009F48D
:1001300021C18230A9F4923009F01DC19A01AD01AC
:1001400088E0EA010990AE01E90109929E0181501F
:10015000C1F7E201898111969C918923818308C1AD
:10016000923009F407C112962D903C901397EB0141
:100170008A819B811496AD90BD90CD90DC901797AD
:10018000EC80FD800E811F819101281B390BB90184
:1001900037FF04C066277727621B730B6032710537
:1001A0000CF061C0121613066CF537014801062EDB
:1001B00004C096948794779467940A94D2F721E0C8
:1001C00030E040E050E004C0220F331F441F551FB1
:1001D0006A95D2F721503040404050402E213F21B7
:1001E00040235123211531054105510521F021E01E
:1001F00030E040E050E079018A01E628F72808293C
:1002000019293CC0232BD1F1260E371E350146019A
:10021000062E04C096948794779467940A94D2F734
:1002200021E030E040E050E004C0220F331F441FC3
:10023000551F6A95D2F721503040404050402A2146
:100240003B214C215D21211531054105510521F04E
:1002500021E030E040E050E059016A01A628B728CB
:10026000C828D9280BC0821593052CF01C01AA249C
:10027000BB24650103C0EE24FF24870111969C91E5
:10028000D20111968C91981709F445C0992339F041
:10029000A80197012A193B094C095D0906C0A6016E
:1002A00095012E193F09400B510B57FD08C01182D3
:1002B0003382228224833583468357831DC081E0A5
:1002C00081833382228288279927DC01821B930B4A
:1002D000A40BB50B84839583A683B7830DC0220F2F
:1002E000331F441F551F24833583468357838281E0
:1002F000938101979383828324813581468157813D
:10030000DA01C9010197A109B1098F5F9F4FAF4F72
:10031000BF4328F30BC0918333822282EA0CFB1C7B
:100320000C1D1D1DE482F5820683178383E0808304
:10033000248135814681578157FF1AC0C901AA27F8
:1003400097FDA095BA2F81709070A070B0705695EF
:10035000479537952795822B932BA42BB52B848318
:100360009583A683B7838281938101969383828349
:10037000DF0101C0D201CD01CDB7DEB7E2E10C94BF
:100380007D18A0E2B0E0E7ECF1E00C946D18698311
:100390007A838B839C832D833E834F835887E9E048
:1003A000EE2EF12CEC0EFD1ECE010196B7010E943F
:1003B00046068E010F5E1F4FCE010596B8010E94C2
:1003C00046068A8991E089278A8BC701B801AE0168
:1003D000475E5F4F0E9475000E947105A096E6E09F
:1003E0000C948918A0E2B0E0E8EFF1E00C946D18ED
:1003F00069837A838B839C832D833E834F835887C5
:10040000F9E0EF2EF12CEC0EFD1ECE010196B701A6
:100410000E9446068E010F5E1F4FCE010596B80161
:100420000E944606C701B801AE01475E5F4F0E94B9
:1004300075000E947105A096E6E00C948918A0E270
:10044000B0E0E5E2F2E00C94611869837A838B8373
:100450009C832D833E834F835887CE010196BE0136
:10046000675F7F4F0E944606CE010596BE016F5E14
:100470007F4F0E9446069985923088F089898230A4
:10048000C8F0943019F4823051F404C0843029F457
:10049000923081F480E690E0C6C0923049F420E0CA
:1004A0009A858A89981321E02A87CE010996BBC0D4
:1004B000823049F420E09A858A89981321E02A8BBA
:1004C000CE014196B0C02D843E844F8458886D88FB
:1004D0007E888F88988CEE24FF248701AA24BB2471
:1004E000650140E050E060E070E0E0E0F0E0C10174
:1004F00081709070892BE9F0E60CF71C081D191D1E
:100500009A01AB012A0D3B1D4C1D5D1D80E090E062
:10051000A0E0B0E0E614F7040805190520F481E036
:1005200090E0A0E0B0E0BA01A901480F591F6A1F8E
:100530007B1FAA0CBB1CCC1CDD1C97FE08C081E0F5
:1005400090E0A0E0B0E0A82AB92ACA2ADB2A3196B6
:10055000E032F10549F0660C771C881C991C569412
:10056000479437942794C3CFFA85EA892B893C892D
:100570008B859C85280F391F2E5F3F4F17C0CA01FE
:1005800081709070892B61F016950795F794E79428
:1005900080E090E0A0E0B0E8E82AF92A0A2B1B2BC3
:1005A00076956795579547952F5F3F4F77FDE7CF36
:1005B0000CC0440F551F661F771F17FD4160EE0CDE
:1005C000FF1C001F111F21503040403090E05907A0
:1005D00090E0690790E4790760F32B8F3C8FDB0193
:1005E000CA018F779070A070B07080349105A1051A
:1005F000B10561F447FD0AC0E114F10401051105DC
:1006000029F0405C5F4F6F4F7F4F40781A8EFE1786
:1006100011F081E08A8F4D8F5E8F6F8F78A383E01A
:10062000898FCE0149960E947105A096E2E10C9453
:100630007D18A8E1B0E0EFE1F3E00C94691869835C
:100640007A838B839C832D833E834F835887B9E0C5
:10065000EB2EF12CEC0EFD1ECE010196B7010E948F
:1006600046068E010F5E1F4FCE010596B8010E940F
:1006700046062985223008F47EC03989323010F4CC
:10068000B8017CC08A859A8989278A87243011F02D
:10069000223031F4231709F06EC060E670E06EC0BE
:1006A000343039F41D861E861F86188A1C861B86E8
:1006B00004C0323021F484E08987B7015FC02B8504
:1006C0003C858B899C89281B390B3C872B87ED84C3
:1006D000FE840F851889AD88BE88CF88D88CEA142F
:1006E000FB040C051D0540F4EE0CFF1C001F111F40
:1006F000215030403C872B8720E030E040E050E044
:1007000080E090E0A0E0B0E460E070E0EA14FB0478
:100710000C051D0540F0282B392B4A2B5B2BEA18C2
:10072000FB080C091D09B695A79597958795EE0CC2
:10073000FF1C001F111F6F5F7F4F6F31710531F775
:10074000DA01C9018F779070A070B0708034910584
:10075000A105B10561F427FD0AC0E114F10401050A
:10076000110529F0205C3F4F4F4F5F4F20782D87B8
:100770003E874F87588BBE01675F7F4FCB010E943A
:1007800071056896EAE00C948518A8E1B0E0EBECFE
:10079000F3E00C946D1869837A838B839C832D839B
:1007A0003E834F83588789E0E82EF12CEC0EFD1E26
:1007B000CE010196B7010E9446068E010F5E1F4FC3
:1007C000CE010596B8010E9446068985823040F028
:1007D0008989823028F0C701B8010E94BE0601C095
:1007E0008FEF6896E6E00C948918A8E1B0E0EBEF93
:1007F000F3E00C946D1869837A838B839C832D833B
:100800003E834F83588789E0E82EF12CEC0EFD1EC5
:10081000CE010196B7010E9446068E010F5E1F4F62
:10082000CE010596B8010E9446068985823040F0C7
:100830008989823028F0C701B8010E94BE0601C034
:100840008FEF6896E6E00C948918A8E1B0E0EBE23F
:10085000F4E00C946D1869837A838B839C832D83D9
:100860003E834F83588789E0E82EF12CEC0EFD1E65
:10087000CE010196B7010E9446068E010F5E1F4F02
:10088000CE010596B8010E9446068985823040F067
:100890008989823028F0C701B8010E94BE0601C0D4
:1008A00081E06896E6E00C948918ACE0B0E0EBE5F6
:1008B000F4E00C94711869837A838B839C83CE0156
:1008C0000196BE016B5F7F4F0E9446068D8182308C
:1008D00061F1823050F1843021F48E81882351F10E
:1008E0002EC02F81388537FD20C06E812F31310514
:1008F0001CF06623F9F023C08EE190E0821B930B7D
:1009000029853A854B855C8504C056954795379572
:1009100027958A95D2F76623B1F05095409530958A
:1009200021953F4F4F4F5F4F0EC020E030E040E039
:1009300050E009C02FEF3FEF4FEF5FE704C020E02A
:1009400030E040E050E8B901CA012C96E2E00C9496
:100950008D18A8E0B0E0EFEAF4E00C9469187B0190
:100960008C01611571058105910519F482E0898377
:1009700060C083E089838EE1C82ED12CDC82CB82DB
:10098000ED82FE820F831887C801B7010E942205FD
:10099000FC013197F7FF3BC0222733272E1B3F0B6B
:1009A00057016801022E04C0D694C794B794A79447
:1009B0000A94D2F740E050E060E070E081E090E01F
:1009C000A0E0B0E004C0880F991FAA1FBB1F2A95A2
:1009D000D2F70197A109B1098E219F21A023B1234C
:1009E0000097A105B10521F041E050E060E070E022
:1009F0004A295B296C297D294D835E836F83788723
:100A00008EE190E08E1B9F0B9C838B8312C03097EE
:100A100081F00E2E04C0EE0CFF1C001F111F0A9463
:100A2000D2F7ED82FE820F831887CE1ADF0ADC82AE
:100A3000CB821A82CE0101960E9471052896EAE0C7
:100A40000C948518EF92FF920F931F937B018C01FA
:100A500080E0E81680E0F80681E0080780E01807EB
:100A600088F48FEFE816F1040105110531F028F044
:100A700088E090E0A0E0B0E017C080E090E0A0E067
:100A8000B0E012C080E0E81680E0F80680E00807D9
:100A900081E0180728F088E190E0A0E0B0E004C011
:100AA00080E190E0A0E0B0E020E230E040E050E003
:100AB000281B390B4A0B5B0B04C016950795F7945E
:100AC000E7948A95D2F7F701E859FF4F8081281BF8
:100AD000310941095109C9011F910F91FF90EF9010
:100AE0000895DF92EF92FF920F931F93FC01E48031
:100AF000F58006811781D1808081823048F480E0C2
:100B000090E0A0E1B0E0E82AF92A0A2B1B2BA5C04F
:100B1000843009F49FC0823021F4EE24FF24870141
:100B200005C0E114F1040105110519F4E0E0F0E05D
:100B300096C0628173819FEF623879070CF05BC0C9
:100B400022E83FEF261B370B2A3131052CF020E03D
:100B500030E040E050E02AC0B801A701022E04C0F6
:100B600076956795579547950A94D2F781E090E07E
:100B7000A0E0B0E004C0880F991FAA1FBB1F2A95F0
:100B8000D2F70197A109B1098E219F21A023B1239A
:100B90000097A105B10521F081E090E0A0E0B0E070
:100BA0009A01AB01282B392B4A2B5B2BDA01C901A7
:100BB0008F779070A070B07080349105A105B10559
:100BC00039F427FF09C0205C3F4F4F4F5F4F04C0EF
:100BD000215C3F4F4F4F5F4FE0E0F0E02030A0E05E
:100BE0003A07A0E04A07A0E45A0710F0E1E0F0E07D
:100BF00079018A0127C06038710564F5FB01E1586D
:100C0000FF4FD801C7018F779070A070B07080340B
:100C10009105A105B10539F4E7FE0DC080E490E02F
:100C2000A0E0B0E004C08FE390E0A0E0B0E0E80E08
:100C3000F91E0A1F1B1F17FF05C016950795F7948D
:100C4000E794319687E016950795F794E7948A958F
:100C5000D1F705C0EE24FF248701EFEFF0E06E2FFF
:100C6000679566276795902F9F77D794DD24D79453
:100C70008E2F8695492F462B582F5D29B701CA0123
:100C80001F910F91FF90EF90DF900895FC01DB0121
:100C9000408151812281622F6F7770E0221F2227CD
:100CA000221F9381892F880F822B282F30E0991FD4
:100CB0009927991F11969C93119721153105A9F534
:100CC000411551056105710511F482E037C082E8D4
:100CD0009FEF13969C938E9312979A01AB0167E056
:100CE000220F331F441F551F6A95D1F783E08C9361
:100CF0000DC0220F331F441F551F12968D919C91DA
:100D00001397019713969C938E931297203080E04F
:100D1000380780E0480780E4580758F314962D936D
:100D20003D934D935C93179708952F3F310579F4C8
:100D3000411551056105710519F484E08C930895FE
:100D400064FF03C081E08C9312C01C9210C02F5727
:100D5000304013963C932E93129783E08C9387E058
:100D6000440F551F661F771F8A95D1F7706414963C
:100D70004D935D936D937C93179708951F93DC01BA
:100D8000FB019C91923008F447C08081823008F4C6
:100D900043C0943051F411961C91843099F58181AF
:100DA000682F70E0611B71093FC0843021F09230E0
:100DB00031F48230B9F18181882389F12DC01196F7
:100DC0001C9111978230F1F081811817D9F4129695
:100DD0002D913C911397828193818217930794F010
:100DE00028173907BCF014968D919D910D90BC91F8
:100DF000A02D2481358146815781281739074A075C
:100E00005B0718F4112341F00AC082179307A40767
:100E1000B50740F4112319F061E070E005C06FEFF1
:100E20007FEF02C060E070E0CB011F910895DF9377
:100E3000CF93CDB7DEB7E0E4F0E086E88083E9E267
:100E4000F0E083E38083AAE2B0E0EAE2F0E08081B0
:100E500088608C93AAE2B0E0EAE2F0E080818061F1
:100E60008C93CF91DF910895DF93CF930F92CDB7FD
:100E7000DEB78983EBE2F0E080818295869587700A
:100E8000882F90E0817090700097A1F3ECE2F0E081
:100E9000898180830F90CF91DF910895DF93CF9365
:100EA00000D00F92CDB7DEB79B838A8319820EC024
:100EB0008981282F30E08A819B81FC01E20FF31F9A
:100EC00080810E94340789818F5F89838981282FDF
:100ED00030E08A819B81FC01E20FF31F808188232F
:100EE00039F70F900F900F90CF91DF910895DF9316
:100EF000CF93CDB7DEB7EBE2F0E080818823DCF75B
:100F0000ECE2F0E08081CF91DF910895DF93CF9301
:100F1000CDB7DEB7AFE5B0E0EFE5F0E08081806807
:100F20008C93CF91DF910895DF93CF93CDB7DEB748
:100F3000AFE5B0E0EFE5F0E080818F778C93CF9163
:100F4000DF910895DF93CF9300D00F92CDB7DEB736
:100F500089838981282F30E03B832A838A819B8182
:100F60008130910589F02A813B8122303105A1F041
:100F70008A819B810097B9F4ABE5B0E0EBE5F0E046
:100F8000808180648C930FC0ABE5B0E0EBE5F0E0CE
:100F9000808180688C9307C0ABE5B0E0EBE5F0E0C2
:100FA000808180628C930F900F900F90CF91DF9192
:100FB0000895DF93CF9300D00F92CDB7DEB789832A
:100FC0008981282F30E03B832A838A819B8181306D
:100FD000910589F02A813B8122303105A1F08A8177
:100FE0009B810097B9F4ABE5B0E0EBE5F0E08081E0
:100FF0008F7B8C930FC0ABE5B0E0EBE5F0E0808138
:101000008F778C9307C0ABE5B0E0EBE5F0E0808133
:101010008F7D8C930F900F900F90CF91DF9108955B
:10102000DF93CF93CDB7DEB72A970FB6F894DEBF24
:101030000FBECDBF89836A838981282F30E03A872C
:10104000298789859A858130910509F466C02985AB
:101050003A852230310509F4BBC089859A8500970D
:1010600009F0D5C08A81282F30E038872F838F81FF
:1010700098858130910521F12F8138852230310505
:101080002CF48F819885009761F0C1C02F8138853D
:101090002230310521F18F8198858330910571F1DE
:1010A000B6C0A5E5B0E0E5E5F0E080818D7F8C93EA
:1010B000A5E5B0E0E5E5F0E080818E7F8C93A7C0E8
:1010C000A5E5B0E0E5E5F0E080818D7F8C93A5E5B6
:1010D000B0E0E5E5F0E0808181608C9398C0A5E503
:1010E000B0E0E5E5F0E0808182608C93A5E5B0E0BA
:1010F000E5E5F0E080818E7F8C9389C0A5E5B0E0C6
:10110000E5E5F0E0808182608C93A5E5B0E0E5E55F
:10111000F0E0808181608C937AC08A81282F30E052
:101120003E832D838D819E818130910521F12D811A
:101130003E81223031052CF48D819E81009761F033
:1011400066C02D813E812230310521F18D819E8145
:101150008330910571F15BC0A5E5B0E0E5E5F0E015
:101160008081877F8C93A5E5B0E0E5E5F0E08081A4
:101170008B7F8C934CC0A5E5B0E0E5E5F0E0808185
:10118000877F8C93A5E5B0E0E5E5F0E080818460A1
:101190008C933DC0A5E5B0E0E5E5F0E08081886096
:1011A0008C93A5E5B0E0E5E5F0E080818B7F8C9342
:1011B0002EC0A5E5B0E0E5E5F0E0808188608C9385
:1011C000A5E5B0E0E5E5F0E0808184608C931FC088
:1011D0008A81282F30E03C832B838B819C81823055
:1011E000910531F02B813C812330310549F00FC04E
:1011F000A4E5B0E0E4E5F0E080818F7B8C9307C04C
:10120000A4E5B0E0E4E5F0E0808180648C932A9668
:101210000FB6F894DEBF0FBECDBFCF91DF9108951A
:10122000DF93CF9300D0CDB7DEB79A8389838981CE
:101230009A8190936D0180936C010F900F90CF91E4
:10124000DF910895DF93CF9300D0CDB7DEB79A83B7
:10125000898389819A8190936F0180936E010F90A9
:101260000F90CF91DF910895DF93CF9300D0CDB74A
:10127000DEB79A83898389819A81909371018093E3
:1012800070010F900F90CF91DF9108951F920F92F0
:101290000FB60F9211242F933F934F935F936F9349
:1012A0007F938F939F93AF93BF93EF93FF93DF93BE
:1012B000CF93CDB7DEB7E0916C01F0916D01099548
:1012C000CF91DF91FF91EF91BF91AF919F918F915E
:1012D0007F916F915F914F913F912F910F900FBE32
:1012E0000F901F9018951F920F920FB60F92112416
:1012F0002F933F934F935F936F937F938F939F931E
:10130000AF93BF93EF93FF93DF93CF93CDB7DEB748
:10131000E0916E01F0916F010995CF91DF91FF91FE
:10132000EF91BF91AF919F918F917F916F915F915D
:101330004F913F912F910F900FBE0F901F901895D6
:101340001F920F920FB60F9211242F933F934F933A
:101350005F936F937F938F939F93AF93BF93EF931D
:10136000FF93DF93CF93CDB7DEB7E0917001F0919B
:1013700071010995CF91DF91FF91EF91BF91AF91ED
:101380009F918F917F916F915F914F913F912F919D
:101390000F900FBE0F901F901895DF93CF93CDB78E
:1013A000DEB729970FB6F894DEBF0FBECDBF898395
:1013B0006A834B838B81282F30E039872887888583
:1013C0009985009709F476C0288539852130310543
:1013D00009F0E4C08981282F30E03F832E838E817D
:1013E0009F818234910551F12E813F812334310553
:1013F00034F48E819F818134910561F0CFC02E81BC
:101400003F812334310571F18E819F8184349105B0
:10141000E9F1C4C0AAE3B0E0EAE3F0E08081482F3C
:101420008A81282F30E081E090E0022E02C0880FF0
:10143000991F0A94E2F7842B8C93B0C0A7E3B0E025
:10144000E7E3F0E08081482F8A81282F30E081E0B7
:1014500090E0022E02C0880F991F0A94E2F7842BB5
:101460008C939CC0A4E3B0E0E4E3F0E08081482FDB
:101470008A81282F30E081E090E0022E02C0880FA0
:10148000991F0A94E2F7842B8C9388C0A1E3B0E003
:10149000E1E3F0E08081482F8A81282F30E081E06D
:1014A00090E0022E02C0880F991F0A94E2F7842B65
:1014B0008C9374C08981282F30E03D832C838C81EC
:1014C0009D818234910561F12C813D812334310568
:1014D00034F48C819D818134910569F05FC02C8149
:1014E0003D812334310589F18C819D8184349105BE
:1014F00009F440C053C0AAE3B0E0EAE3F0E0808121
:10150000482F8A81282F30E081E090E0022E02C02F
:10151000880F991F0A94E2F7809584238C933EC02C
:10152000A7E3B0E0E7E3F0E08081482F8A81282F2D
:1015300030E081E090E0022E02C0880F991F0A94EB
:10154000E2F7809584238C9329C0A4E3B0E0E4E320
:10155000F0E08081482F8A81282F30E081E090E000
:10156000022E02C0880F991F0A94E2F78095842307
:101570008C9314C0A1E3B0E0E1E3F0E08081482F58
:101580008A81282F30E081E090E0022E02C0880F8F
:10159000991F0A94E2F7809584238C9329960FB6BD
:1015A000F894DEBF0FBECDBFCF91DF910895DF93DA
:1015B000CF93CDB7DEB729970FB6F894DEBF0FBE35
:1015C000CDBF89836A834B838B81282F30E0398795
:1015D000288788859985009709F476C028853985FC
:1015E0002130310509F0E4C08981282F30E03F83A4
:1015F0002E838E819F818234910551F12E813F810E
:101600002334310534F48E819F818134910561F05A
:10161000CFC02E813F812334310571F18E819F81AE
:1016200084349105E9F1C4C0ABE3B0E0EBE3F0E052
:101630008081482F8A81282F30E081E090E0022EBF
:1016400002C0880F991F0A94E2F7842B8C93B0C0D4
:10165000A8E3B0E0E8E3F0E08081482F8A81282FFA
:1016600030E081E090E0022E02C0880F991F0A94BA
:10167000E2F7842B8C939CC0A5E3B0E0E5E3F0E0B7
:101680008081482F8A81282F30E081E090E0022E6F
:1016900002C0880F991F0A94E2F7842B8C9388C0AC
:1016A000A2E3B0E0E2E3F0E08081482F8A81282FB6
:1016B00030E081E090E0022E02C0880F991F0A946A
:1016C000E2F7842B8C9374C08981282F30E03D830E
:1016D0002C838C819D818234910561F12C813D8127
:1016E0002334310534F48C819D818134910569F076
:1016F0005FC02C813D812334310589F18C819D812E
:101700008434910509F440C053C0ABE3B0E0EBE38F
:10171000F0E08081482F8A81282F30E081E090E03E
:10172000022E02C0880F991F0A94E2F78095842345
:101730008C933EC0A8E3B0E0E8E3F0E08081482F5E
:101740008A81282F30E081E090E0022E02C0880FCD
:10175000991F0A94E2F7809584238C9329C0A5E30E
:10176000B0E0E5E3F0E08081482F8A81282F30E067
:1017700081E090E0022E02C0880F991F0A94E2F7E0
:10178000809584238C9314C0A2E3B0E0E2E3F0E000
:101790008081482F8A81282F30E081E090E0022E5E
:1017A00002C0880F991F0A94E2F7809584238C93D6
:1017B00029960FB6F894DEBF0FBECDBFCF91DF9153
:1017C0000895DF93CF9300D000D00F92CDB7DEB74E
:1017D0008A836B838A81282F30E03D832C834C8160
:1017E0005D814234510541F18C819D8183349105A5
:1017F00034F42C813D812134310561F052C04C819B
:101800005D814334510551F18C819D818434910572
:10181000B9F147C0E9E3F0E08081282F30E08B8107
:10182000882F90E0A90102C0559547958A95E2F767
:10183000CA018170898335C0E6E3F0E08081282FFA
:1018400030E08B81882F90E0A90102C05595479523
:101850008A95E2F7CA018170898323C0E3E3F0E04F
:101860008081282F30E08B81882F90E0A90102C071
:10187000559547958A95E2F7CA018170898311C011
:10188000E0E3F0E08081282F30E08B81882F90E02A
:10189000A90102C0559547958A95E2F7CA01817062
:1018A000898389810F900F900F900F900F90CF91A7
:1018B000DF910895DF93CF9300D000D0CDB7DEB78E
:1018C00089836A838981282F30E03C832B838B8135
:1018D0009C8182349105D9F02B813C8123343105E0
:1018E00034F48B819C818134910561F01EC02B8181
:1018F0003C812334310581F08B819C8184349105B6
:1019000081F013C0EAE3F0E08A8180830EC0E7E350
:10191000F0E08A81808309C0E4E3F0E08A8180837B
:1019200004C0E1E3F0E08A8180830F900F900F9074
:101930000F90CF91DF910895DF93CF9300D000D027
:10194000CDB7DEB789836A838981282F30E03C8355
:101950002B838B819C8182349105D9F02B813C8132
:101960002334310534F48B819C818134910561F0FD
:101970001EC02B813C812334310581F08B819C81F9
:101980008434910581F013C0EBE3F0E08A81808319
:101990000EC0E8E3F0E08A81808309C0E5E3F0E06F
:1019A0008A81808304C0E2E3F0E08A8180830F9023
:1019B0000F900F900F90CF91DF910895DF93CF9309
:1019C00000D000D00F92CDB7DEB789837B836A83C6
:1019D0008981282F30E03D832C838C819D81823446
:1019E0009105E9F02C813D812334310534F48C815B
:1019F0009D818134910561F026C02C813D81233485
:101A00003105A1F08C819D8184349105B1F01BC01A
:101A1000E9E3F0E08081EA81FB81808314C0E6E3A2
:101A2000F0E08081EA81FB8180830DC0E3E3F0E098
:101A30008081EA81FB81808306C0E0E3F0E0808161
:101A4000EA81FB8180830F900F900F900F900F9091
:101A5000CF91DF910895DF93CF9300D000D000D0D5
:101A6000CDB7DEB789836A838981282F30E03E8332
:101A70002D838D819E8181309105C1F02D813E8124
:101A80002330310511F18D819E81009761F5A7E228
:101A9000B0E0E7E2F0E080818F7B8C93A7E2B0E0DA
:101AA000E7E2F0E080818F778C931DC0A7E2B0E081
:101AB000E7E2F0E0808180648C93A7E2B0E0E7E2A7
:101AC000F0E080818F778C930EC0A7E2B0E0E7E270
:101AD000F0E0808180648C93A7E2B0E0E7E2F0E080
:101AE000808180688C93A7E2B0E0E7E2F0E080813B
:101AF0008F7D8C938A81282F30E03C832B838B81D0
:101B00009C818130910561F12B813C81223031052E
:101B10002CF48B819C81009769F063C02B813C8100
:101B20002230310599F18B819C818530910509F432
:101B300043C057C0A6E2B0E0E6E2F0E080818E7FCD
:101B40008C93A6E2B0E0E6E2F0E080818D7F8C939A
:101B5000A6E2B0E0E6E2F0E080818B7F8C9341C0AA
:101B6000A6E2B0E0E6E2F0E080818E7F8C93A6E210
:101B7000B0E0E6E2F0E0808182608C93A6E2B0E023
:101B8000E6E2F0E080818B7F8C932BC0A6E2B0E090
:101B9000E6E2F0E0808181608C93A6E2B0E0E6E2CC
:101BA000F0E0808182608C93A6E2B0E0E6E2F0E0B3
:101BB00080818B7F8C9315C0A6E2B0E0E6E2F0E076
:101BC000808181608C93A6E2B0E0E6E2F0E0808163
:101BD00082608C93A6E2B0E0E6E2F0E0808184606F
:101BE0008C93A6E2B0E0E6E2F0E0808180688C931E
:101BF00026960FB6F894DEBF0FBECDBFCF91DF9112
:101C00000895DF93CF930F92CDB7DEB78983A7E214
:101C1000B0E0E7E2F0E08081807E8C93A7E2B0E064
:101C2000E7E2F0E090818981892B8C93A6E2B0E015
:101C3000E6E2F0E0808180648C93E6E2F0E080816F
:101C400082958F70882F90E0817090700097A9F333
:101C5000A6E2B0E0E6E2F0E0808180618C93E4E20D
:101C6000F0E0808191810F90CF91DF910895DF9313
:101C7000CF93CDB7DEB729970FB6F894DEBF0FBE6E
:101C8000CDBF898789850E94010ECC01A0E0B0E01C
:101C9000BC01CD010E94A904DC01CB018D839E8390
:101CA000AF83B8876D817E818F81988520E030E099
:101CB00040EA50E40E941F02DC01CB01BC01CD01CF
:101CC00020E030E040E854E40E941903DC01CB013D
:101CD00089839A83AB83BC8389819A81AB81BC81E0
:101CE000BC01CD0129960FB6F894DEBF0FBECDBF63
:101CF000CF91DF910895DF93CF93CDB7DEB72997CA
:101D00000FB6F894DEBF0FBECDBF898789850E94CC
:101D1000370EDC01CB018D839E83AF83B8876D8145
:101D20007E818F81988520E030E048EC52E40E946B
:101D30001F02DC01CB0189839A83AB83BC83898139
:101D40009A81AB81BC81BC01CD0129960FB6F89474
:101D5000DEBF0FBECDBFCF91DF910895DF93CF934C
:101D600000D0CDB7DEB79A83898389819A81909319
:101D70007301809372010F900F90CF91DF910895BE
:101D80001F920F920FB60F9211242F933F934F93F0
:101D90005F936F937F938F939F93AF93BF93EF93D3
:101DA000FF93DF93CF93CDB7DEB7E0917201F0914F
:101DB00073010995CF91DF91FF91EF91BF91AF91A1
:101DC0009F918F917F916F915F914F913F912F9153
:101DD0000F900FBE0F901F901895DF93CF93CDB744
:101DE000DEB781E46FE00E945A0CCF91DF91089535
:101DF000DF93CF93CDB7DEB781E460E040E00E948F
:101E0000D70A81E461E040E00E94D70A81E462E001
:101E100040E00E94D70A81E463E040E00E94D70AD4
:101E2000CF91DF910895DF93CF93CDB7DEB7E897D9
:101E30000FB6F894DEBF0FBECDBF81E460E041E095
:101E40000E94D70A81E461E040E00E94D70A81E461
:101E500062E040E00E94D70A81E463E040E00E9433
:101E6000D70A80E090E0AAEFB3E48DAB9EABAFABB6
:101E7000B8AF6DA97EA98FA998AD20E030E04AEFF8
:101E800054E40E941F02DC01CB0189AB9AABABABDF
:101E9000BCAB69A97AA98BA99CA920E030E040E8F5
:101EA0005FE30E94250488232CF481E090E098AB46
:101EB0008FA73FC069A97AA98BA99CA920E03FEF11
:101EC0004FE757E40E94C50318164CF56DA97EA98B
:101ED0008FA998AD20E030E040E251E40E941F025B
:101EE000DC01CB01BC01CD010E944900DC01CB012A
:101EF00098AB8FA70FC088EC90E09EA78DA78DA50B
:101F00009EA50197F1F79EA78DA78FA598A9019788
:101F100098AB8FA78FA598A9009769F714C069A9F6
:101F20007AA98BA99CA90E944900DC01CB0198AB3E
:101F30008FA78FA598A99CA78BA78BA59CA5019778
:101F4000F1F79CA78BA781E460E040E00E94D70AEC
:101F500081E461E040E00E94D70A81E462E041E070
:101F60000E94D70A81E463E040E00E94D70A80E043
:101F700090E0AAEFB3E48FA398A7A9A7BAA76FA18F
:101F800078A589A59AA520E030E04AEF54E40E94A4
:101F90001F02DC01CB018BA39CA3ADA3BEA36BA14D
:101FA0007CA18DA19EA120E030E040E85FE30E948B
:101FB000250488232CF481E090E09AA389A33FC0F4
:101FC0006BA17CA18DA19EA120E03FEF4FE757E4DC
:101FD0000E94C50318164CF56FA178A589A59AA58E
:101FE00020E030E040E251E40E941F02DC01CB011E
:101FF000BC01CD010E944900DC01CB019AA389A359
:102000000FC088EC90E098A38F8F8F8D98A10197D7
:10201000F1F798A38F8F89A19AA101979AA389A319
:1020200089A19AA1009769F714C06BA17CA18DA129
:102030009EA10E944900DC01CB019AA389A389A13A
:102040009AA19E8F8D8F8D8D9E8D0197F1F79E8F1A
:102050008D8F81E460E040E00E94D70A81E461E076
:1020600041E00E94D70A81E462E040E00E94D70A82
:1020700081E463E040E00E94D70A80E090E0AAEFAC
:10208000B3E4898F9A8FAB8FBC8F698D7A8D8B8DDE
:102090009C8D20E030E04AEF54E40E941F02DC01F6
:1020A000CB018D8B9E8BAF8BB88F6D897E898F898D
:1020B000988D20E030E040E85FE30E94250488230B
:1020C0002CF481E090E09C8B8B8B3FC06D897E89E6
:1020D0008F89988D20E03FEF4FE757E40E94C503BA
:1020E00018164CF5698D7A8D8B8D9C8D20E030E033
:1020F00040E251E40E941F02DC01CB01BC01CD0192
:102100000E944900DC01CB019C8B8B8B0FC088ECBB
:1021100090E09A8B898B89899A890197F1F79A8B3C
:10212000898B8B899C8901979C8B8B8B8B899C8954
:10213000009769F714C06D897E898F89988D0E94F8
:102140004900DC01CB019C8B8B8B8B899C89988B04
:102150008F878F8598890197F1F7988B8F8781E416
:1021600060E040E00E94D70A81E461E040E00E9424
:10217000D70A81E462E040E00E94D70A81E463E08C
:1021800041E00E94D70A80E090E0AAEFB3E48B8799
:102190009C87AD87BE876B857C858D859E8520E07D
:1021A00030E04AEF54E40E941F02DC01CB018F8330
:1021B0009887A987BA876F81788589859A8520E075
:1021C00030E040E85FE30E94250488232CF481E09E
:1021D00090E09E838D833FC06F81788589859A8545
:1021E00020E03FEF4FE757E40E94C50318164CF577
:1021F0006B857C858D859E8520E030E040E251E452
:102200000E941F02DC01CB01BC01CD010E944900EC
:10221000DC01CB019E838D830FC088EC90E09C8312
:102220008B838B819C810197F1F79C838B838D81BC
:102230009E8101979E838D838D819E81009769F792
:1022400014C06F81788589859A850E944900DC01D8
:10225000CB019E838D838D819E819A838983898121
:102260009A810197F1F79A838983E8960FB6F894DB
:10227000DEBF0FBECDBFCF91DF910895DF93CF9327
:10228000CDB7DEB7E8970FB6F894DEBF0FBECDBF6F
:1022900081E460E040E00E94D70A81E461E040E030
:1022A0000E94D70A81E462E040E00E94D70A81E4FC
:1022B00063E041E00E94D70A80E090E0AAEFB3E437
:1022C0008DAB9EABAFABB8AF6DA97EA98FA998AD12
:1022D00020E030E04AEF54E40E941F02DC01CB0111
:1022E00089AB9AABABABBCAB69A97AA98BA99CA90A
:1022F00020E030E040E85FE30E94250488232CF4CE
:1023000081E090E098AB8FA73FC069A97AA98BA91B
:102310009CA920E03FEF4FE757E40E94C503181641
:102320004CF56DA97EA98FA998AD20E030E040E280
:1023300051E40E941F02DC01CB01BC01CD010E94CF
:102340004900DC01CB0198AB8FA70FC088EC90E06F
:102350009EA78DA78DA59EA50197F1F79EA78DA796
:102360008FA598A9019798AB8FA78FA598A90097DB
:1023700069F714C069A97AA98BA99CA90E94490090
:10238000DC01CB0198AB8FA78FA598A99CA78BA741
:102390008BA59CA50197F1F79CA78BA781E460E032
:1023A00040E00E94D70A81E461E041E00E94D70A40
:1023B00081E462E040E00E94D70A81E463E040E00B
:1023C0000E94D70A80E090E0AAEFB3E48FA398A719
:1023D000A9A7BAA76FA178A589A59AA520E030E0A2
:1023E0004AEF54E40E941F02DC01CB018BA39CA3A3
:1023F000ADA3BEA36BA17CA18DA19EA120E030E086
:1024000040E85FE30E94250488232CF481E090E0FB
:102410009AA389A33FC06BA17CA18DA19EA120E0BE
:102420003FEF4FE757E40E94C50318164CF56FA124
:1024300078A589A59AA520E030E040E251E40E9409
:102440001F02DC01CB01BC01CD010E944900DC016F
:10245000CB019AA389A30FC088EC90E098A38F8F3B
:102460008F8D98A10197F1F798A38F8F89A19AA1D9
:1024700001979AA389A389A19AA1009769F714C02B
:102480006BA17CA18DA19EA10E944900DC01CB0122
:102490009AA389A389A19AA19E8F8D8F8D8D9E8DE0
:1024A0000197F1F79E8F8D8F81E460E040E00E94FC
:1024B000D70A81E461E040E00E94D70A81E462E04B
:1024C00041E00E94D70A81E463E040E00E94D70A1D
:1024D00080E090E0AAEFB3E4898F9A8FAB8FBC8F36
:1024E000698D7A8D8B8D9C8D20E030E04AEF54E42D
:1024F0000E941F02DC01CB018D8B9E8BAF8BB88FAE
:102500006D897E898F89988D20E030E040E85FE317
:102510000E94250488232CF481E090E09C8B8B8B17
:102520003FC06D897E898F89988D20E03FEF4FE70E
:1025300057E40E94C50318164CF5698D7A8D8B8D72
:102540009C8D20E030E040E251E40E941F02DC015B
:10255000CB01BC01CD010E944900DC01CB019C8B69
:102560008B8B0FC088EC90E09A8B898B89899A8934
:102570000197F1F79A8B898B8B899C8901979C8BAA
:102580008B8B8B899C89009769F714C06D897E8934
:102590008F89988D0E944900DC01CB019C8B8B8B2D
:1025A0008B899C89988B8F878F8598890197F1F704
:1025B000988B8F8781E460E041E00E94D70A81E434
:1025C00061E040E00E94D70A81E462E040E00E94BE
:1025D000D70A81E463E040E00E94D70A80E090E0FF
:1025E000AAEFB3E48B879C87AD87BE876B857C851C
:1025F0008D859E8520E030E04AEF54E40E941F0262
:10260000DC01CB018F839887A987BA876F81788592
:1026100089859A8520E030E040E85FE30E94250448
:1026200088232CF481E090E09E838D833FC06F81EE
:10263000788589859A8520E03FEF4FE757E40E942F
:10264000C50318164CF56B857C858D859E8520E02D
:1026500030E040E251E40E941F02DC01CB01BC01EA
:10266000CD010E944900DC01CB019E838D830FC008
:1026700088EC90E09C838B838B819C810197F1F7A0
:102680009C838B838D819E8101979E838D838D8119
:102690009E81009769F714C06F81788589859A8536
:1026A0000E944900DC01CB019E838D838D819E8138
:1026B0009A83898389819A810197F1F79A83898323
:1026C000E8960FB6F894DEBF0FBECDBFCF91DF9175
:1026D0000895DF93CF93CDB7DEB781E460E040E0AB
:1026E0000E94D70A81E461E040E00E94D70A81E4B9
:1026F00062E040E00E94D70A81E463E041E00E948A
:10270000D70ACF91DF910895DF93CF93CDB7DEB78E
:102710002E970FB6F894DEBF0FBECDBF81E460E008
:1027200041E00E94D70A81E461E040E00E94D70ABC
:1027300081E462E040E00E94D70A81E463E040E087
:102740000E94D70A80E090E0AAEFB3E48B879C87D1
:10275000AD87BE876B857C858D859E8520E030E0CA
:102760004AEF54E40E941F02DC01CB018F8398875B
:10277000A987BA876F81788589859A8520E030E0BE
:1027800040E85FE30E94250488232CF481E090E078
:102790009E838D833FC06F81788589859A8520E0EF
:1027A0003FEF4FE757E40E94C50318164CF56B85C1
:1027B0007C858D859E8520E030E040E251E40E94DA
:1027C0001F02DC01CB01BC01CD010E944900DC01EC
:1027D000CB019E838D830FC088EC90E09C838B831C
:1027E0008B819C810197F1F79C838B838D819E81E6
:1027F00001979E838D838D819E81009769F714C018
:102800006F81788589859A850E944900DC01CB011A
:102810009E838D838D819E819A83898389819A810C
:102820000197F1F79A8389832E960FB6F894DEBF4D
:102830000FBECDBFCF91DF910895DF93CF93CDB77A
:10284000DEB783E46FE00E945A0CCF91DF910895C8
:10285000DF93CF93CDB7DEB783E460E040E00E9422
:10286000D70A83E461E040E00E94D70A83E462E093
:1028700040E00E94D70A83E463E040E00E94D70A68
:10288000CF91DF910895DF93CF93CDB7DEB783E487
:1028900060E041E00E94D70A83E461E040E00E94EA
:1028A000D70A83E462E041E00E94D70A83E463E050
:1028B00040E00E94D70ACF91DF910895DF93CF9334
:1028C000CDB7DEB783E460E040E00E94D70A83E43E
:1028D00061E041E00E94D70A83E462E040E00E94A8
:1028E000D70A83E463E041E00E94D70ACF91DF91E9
:1028F0000895DF93CF9300D0CDB7DEB784E462E0D4
:1029000040E00E94CD0984E462E00E94E10B882F40
:1029100090E09A83898389819A810F900F90CF915B
:10292000DF910895DF93CF9300D0CDB7DEB79A83C0
:102930008983E981FA818281813029F4E981FA81F0
:1029400081E0838308C0E981FA818281882319F4B8
:10295000E981FA811382E981FA818081E981FA8132
:102960009181692F41E00E94CD090F900F90CF9186
:10297000DF910895DF93CF9300D0CDB7DEB79A8370
:102980008983E981FA818081E981FA812181E98164
:10299000FA819381622F492F0E94D70A0F900F90DE
:1029A000CF91DF910895DF93CF9300D000D00F92A5
:1029B000CDB7DEB79A838983E981FA8180818D83DF
:1029C000E981FA8181818C83E981FA8183811B828B
:1029D000882311F481E08B838D816C814B810E946F
:1029E000D70A0F900F900F900F900F90CF91DF911B
:1029F0000895DF93CF93CDB7DEB7A1970FB6F894C4
:102A0000DEBF0FBECDBF9E8F8D8FED8DFE8D808181
:102A1000ED8DFE8D2181ED8DFE8D9381622F492FED
:102A20000E94D70A80E090E0A8E4B3E4898F9A8FEF
:102A3000AB8FBC8F698D7A8D8B8D9C8D20E030E0C3
:102A40004AEF54E40E941F02DC01CB018D8B9E8B68
:102A5000AF8BB88F6D897E898F89988D20E030E0AB
:102A600040E85FE30E94250488232CF481E090E095
:102A70009C8B8B8B3FC06D897E898F89988D20E0E0
:102A80003FEF4FE757E40E94C50318164CF5698DD8
:102A90007A8D8B8D9C8D20E030E040E251E40E94E5
:102AA0001F02DC01CB01BC01CD010E944900DC0109
:102AB000CB019C8B8B8B0FC088EC90E09A8B898B21
:102AC00089899A890197F1F79A8B898B8B899C89DF
:102AD00001979C8B8B8B8B899C89009769F714C01D
:102AE0006D897E898F89988D0E944900DC01CB0118
:102AF0009C8B8B8B8B899C89988B8F878F859889F2
:102B00000197F1F7988B8F87ED8DFE8D808189A3DA
:102B1000ED8DFE8D818188A3ED8DFE8D83811F8ECD
:102B2000882311F481E08F8F89A168A14F8D0E94C5
:102B3000D70A80E090E0A0E2B1E48B879C87AD8764
:102B4000BE876B857C858D859E8520E030E04AEFD1
:102B500054E40E941F02DC01CB018F839887A98770
:102B6000BA876F81788589859A8520E030E040E8D2
:102B70005FE30E94250488232CF481E090E09E838B
:102B80008D833FC06F81788589859A8520E03FEFEE
:102B90004FE757E40E94C50318164CF56B857C85FA
:102BA0008D859E8520E030E040E251E40E941F02C6
:102BB000DC01CB01BC01CD010E944900DC01CB014D
:102BC0009E838D830FC088EC90E09C838B838B81E8
:102BD0009C810197F1F79C838B838D819E81019766
:102BE0009E838D838D819E81009769F714C06F81CC
:102BF000788589859A850E944900DC01CB019E83F6
:102C00008D838D819E819A83898389819A810197A1
:102C1000F1F79A838983A1960FB6F894DEBF0FBEB1
:102C2000CDBFCF91DF910895DF93CF9300D0CDB783
:102C3000DEB79A838983E981FA818081E981FA810B
:102C40009181692F41E00E94CD09E981FA811282C8
:102C50000F900F90CF91DF910895DF93CF9300D025
:102C600000D00F92CDB7DEB79A838983E981FA81CC
:102C700080818D83E981FA8181818C83E981FA8168
:102C800082811B82882311F481E08B838D816C818A
:102C90004B810E94D70A0F900F900F900F900F90CA
:102CA000CF91DF910895DF93CF9300D0CDB7DEB7FA
:102CB0009A838983E981FA818081E981FA8121817E
:102CC000E981FA819281622F492F0E94D70A0F90E1
:102CD0000F90CF91DF910895DF93CF93CDB7DEB7FB
:102CE000A1970FB6F894DEBF0FBECDBF9E8F8D8F1C
:102CF000ED8DFE8D8081ED8DFE8D2181ED8DFE8D22
:102D00009281622F492F0E94D70A80E090E0A6E1CD
:102D1000B3E4898F9A8FAB8FBC8F698D7A8D8B8D41
:102D20009C8D20E030E04AEF54E40E941F02DC0159
:102D3000CB018D8B9E8BAF8BB88F6D897E898F89F0
:102D4000988D20E030E040E85FE30E94250488236E
:102D50002CF481E090E09C8B8B8B3FC06D897E8949
:102D60008F89988D20E03FEF4FE757E40E94C5031D
:102D700018164CF5698D7A8D8B8D9C8D20E030E096
:102D800040E251E40E941F02DC01CB01BC01CD01F5
:102D90000E944900DC01CB019C8B8B8B0FC088EC1F
:102DA00090E09A8B898B89899A890197F1F79A8BA0
:102DB000898B8B899C8901979C8B8B8B8B899C89B8
:102DC000009769F714C06D897E898F89988D0E945C
:102DD0004900DC01CB019C8B8B8B8B899C89988B68
:102DE0008F878F8598890197F1F7988B8F87ED8D65
:102DF000FE8D808189A3ED8DFE8D818188A3ED8D6F
:102E0000FE8D82811F8E882311F481E08F8F89A12E
:102E100068A14F8D0E94D70A80E090E0A0E2B1E463
:102E20008B879C87AD87BE876B857C858D859E85CE
:102E300020E030E04AEF54E40E941F02DC01CB01A5
:102E40008F839887A987BA876F81788589859A85C6
:102E500020E030E040E85FE30E94250488232CF462
:102E600081E090E09E838D833FC06F817885898566
:102E70009A8520E03FEF4FE757E40E94C5031816FC
:102E80004CF56B857C858D859E8520E030E040E2A9
:102E900051E40E941F02DC01CB01BC01CD010E9464
:102EA0004900DC01CB019E838D830FC088EC90E04C
:102EB0009C838B838B819C810197F1F79C838B830F
:102EC0008D819E8101979E838D838D819E81009748
:102ED00069F714C06F81788589859A850E944900B9
:102EE000DC01CB019E838D838D819E819A838983B2
:102EF00089819A810197F1F79A838983A1960FB608
:102F0000F894DEBF0FBECDBFCF91DF910895DF9360
:102F1000CF93CDB7DEB763970FB6F894DEBF0FBE81
:102F2000CDBF82E4888781E0898781E08A871B861C
:102F3000CE010C96988B8F87E8E6F1E0FA8BE98B4F
:102F4000F3E0FB8BE989FA89008089899A890196E7
:102F50009A8B898BEF85F88900828F8598890196F5
:102F6000988B8F879B8991509B8BEB89EE2351F730
:102F7000CE0108960E949214CE010C960E9414165F
:102F80000E94ED0E0E941D140E94170781E065E06B
:102F90000E942B0D0E9479149B838A8385E00E94F6
:102FA0007B0EDC01CB01BC01CD010E944900DC019C
:102FB000CB018C839D83AE83BF838C819D81AE8149
:102FC000BF8189329105A105B10578F4CE0108963B
:102FD0000E94D314CE010C960E9453160E948413B3
:102FE0000E94281480E00E9434078C819D81AE816C
:102FF000BF8189329105A105B105C0F08C819D8109
:10300000AE81BF818E329105A105B10578F481E4CE
:103010000E943407CE0108960E94F914CE010C9646
:103020000E946C160E9484130E9428148C819D813A
:10303000AE81BF818E329105A105B105C8F08C81AA
:103040009D81AE81BF8182339105A105B10580F4D8
:103050008A819B81009761F0CE010C960E942D160B
:10306000CE0108960E94BA140E9484130E9428146C
:103070008C819D81AE81BF8182339105A105B1050F
:1030800008F488CF86E40E9434070E94770789837A
:1030900089818D3619F40E9469137CCF8981843629
:1030A00019F40E94431476CF8981833609F072CFD8
:1030B000CE0108960E94D314CE010C960E9453169E
:1030C00069CF2F923F924F925F926F927F928F9231
:1030D0009F92AF92BF92CF92DF92EF92FF920F93A7
:1030E0001F93CF93DF93CDB7DEB7CA1BDB0B0FB6B1
:1030F000F894DEBF0FBECDBF09942A88398848886E
:103100005F846E847D848C849B84AA84B984C88403
:10311000DF80EE80FD800C811B81AA81B981CE0FFA
:10312000D11D0FB6F894DEBF0FBECDBFED010895DF
:04313000F894FFCF41
:10313400000000000000000000010202030303037A
:103144000404040404040404050505050505050533
:103154000505050505050505060606060606060613
:1031640006060606060606060606060606060606FB
:1031740006060606060606060707070707070707E3
:1031840007070707070707070707070707070707CB
:1031940007070707070707070707070707070707BB
:1031A40007070707070707070707070707070707AB
:1031B4000707070707070707080808080808080893
:1031C400080808080808080808080808080808087B
:1031D400080808080808080808080808080808086B
:1031E400080808080808080808080808080808085B
:1031F400080808080808080808080808080808084B
:10320400080808080808080808080808080808083A
:10321400080808080808080808080808080808082A
:10322400080808080808080808080808080808081A
:0C3234000808080808080808420000000C
:00000001FF
