:100000000C942A000C9476090C94A3090C94D00942
:100010000C9447000C9447000C9447000C94470044
:100020000C9447000C9447000C9447000C94470034
:100030000C9447000C9447000C9447000C94470024
:100040000C94F00E0C9447000C9447000C9447005D
:100050000C94470011241FBECFE5D8E0DEBFCDBF12
:1000600011E0A0E6B0E0EEE7F3E302C005900D92E8
:10007000AE3BB107D9F711E0AEEBB1E001C01D9284
:10008000A63CB107E1F70E946F170C94BD190C94C0
:100090000000EF92FF920F931F937B018C0120E0F1
:1000A00030E040E05FE40E94250488238CF0C80122
:1000B000B70120E030E040E05FE40E94C1010E940F
:1000C00085049B01AC01205030404040504806C0A0
:1000D000C801B7010E9485049B01AC01B901CA01A6
:1000E0001F910F91FF90EF900895A0E0B0E0EBE733
:1000F000F0E00C948619DC012B01FA019C919230FE
:1001000008F439C1EB018881823008F433C194309E
:1001100069F4843009F02FC111969C91119789815F
:10012000981709F428C1A5EAB0E025C1843009F484
:1001300021C18230A9F4923009F01DC19A01AD01AC
:1001400088E0EA010990AE01E90109929E0181501F
:10015000C1F7E201898111969C918923818308C1AD
:10016000923009F407C112962D903C901397EB0141
:100170008A819B811496AD90BD90CD90DC901797AD
:10018000EC80FD800E811F819101281B390BB90184
:1001900037FF04C066277727621B730B6032710537
:1001A0000CF061C0121613066CF537014801062EDB
:1001B00004C096948794779467940A94D2F721E0C8
:1001C00030E040E050E004C0220F331F441F551FB1
:1001D0006A95D2F721503040404050402E213F21B7
:1001E00040235123211531054105510521F021E01E
:1001F00030E040E050E079018A01E628F72808293C
:1002000019293CC0232BD1F1260E371E350146019A
:10021000062E04C096948794779467940A94D2F734
:1002200021E030E040E050E004C0220F331F441FC3
:10023000551F6A95D2F721503040404050402A2146
:100240003B214C215D21211531054105510521F04E
:1002500021E030E040E050E059016A01A628B728CB
:10026000C828D9280BC0821593052CF01C01AA249C
:10027000BB24650103C0EE24FF24870111969C91E5
:10028000D20111968C91981709F445C0992339F041
:10029000A80197012A193B094C095D0906C0A6016E
:1002A00095012E193F09400B510B57FD08C01182D3
:1002B0003382228224833583468357831DC081E0A5
:1002C00081833382228288279927DC01821B930B4A
:1002D000A40BB50B84839583A683B7830DC0220F2F
:1002E000331F441F551F24833583468357838281E0
:1002F000938101979383828324813581468157813D
:10030000DA01C9010197A109B1098F5F9F4FAF4F72
:10031000BF4328F30BC0918333822282EA0CFB1C7B
:100320000C1D1D1DE482F5820683178383E0808304
:10033000248135814681578157FF1AC0C901AA27F8
:1003400097FDA095BA2F81709070A070B0705695EF
:10035000479537952795822B932BA42BB52B848318
:100360009583A683B7838281938101969383828349
:10037000DF0101C0D201CD01CDB7DEB7E2E10C94BF
:10038000A219A0E2B0E0E7ECF1E00C9492196983C5
:100390007A838B839C832D833E834F835887E9E048
:1003A000EE2EF12CEC0EFD1ECE010196B7010E943F
:1003B00076068E010F5E1F4FCE010596B8010E9492
:1003C00076068A8991E089278A8BC701B801AE0138
:1003D000475E5F4F0E9475000E94A105A096E6E06F
:1003E0000C94AE19A0E2B0E0E8EFF1E00C949219A1
:1003F00069837A838B839C832D833E834F835887C5
:10040000F9E0EF2EF12CEC0EFD1ECE010196B701A6
:100410000E9476068E010F5E1F4FCE010596B80131
:100420000E947606C701B801AE01475E5F4F0E9489
:1004300075000E94A105A096E6E00C94AE19A0E21A
:10044000B0E0E5E2F2E00C94861969837A838B834D
:100450009C832D833E834F835887CE010196BE0136
:10046000675F7F4F0E947606CE010596BE016F5EE4
:100470007F4F0E9476069985923088F08989823074
:10048000C8F0943019F4823051F404C0843029F457
:10049000923081F485EA90E0C6C0923049F420E0C1
:1004A0009A858A89981321E02A87CE010996BBC0D4
:1004B000823049F420E09A858A89981321E02A8BBA
:1004C000CE014196B0C02D843E844F8458886D88FB
:1004D0007E888F88988CEE24FF248701AA24BB2471
:1004E000650140E050E060E070E0E0E0F0E0C10174
:1004F00081709070892BE9F0E60CF71C081D191D1E
:100500009A01AB012A0D3B1D4C1D5D1D80E090E062
:10051000A0E0B0E0E614F7040805190520F481E036
:1005200090E0A0E0B0E0BA01A901480F591F6A1F8E
:100530007B1FAA0CBB1CCC1CDD1C97FE08C081E0F5
:1005400090E0A0E0B0E0A82AB92ACA2ADB2A3196B6
:10055000E032F10549F0660C771C881C991C569412
:10056000479437942794C3CFFA85EA892B893C892D
:100570008B859C85280F391F2E5F3F4F17C0CA01FE
:1005800081709070892B61F016950795F794E79428
:1005900080E090E0A0E0B0E8E82AF92A0A2B1B2BC3
:1005A00076956795579547952F5F3F4F77FDE7CF36
:1005B0000CC0440F551F661F771F17FD4160EE0CDE
:1005C000FF1C001F111F21503040403090E05907A0
:1005D00090E0690790E4790760F32B8F3C8FDB0193
:1005E000CA018F779070A070B07080349105A1051A
:1005F000B10561F447FD0AC0E114F10401051105DC
:1006000029F0405C5F4F6F4F7F4F40781A8EFE1786
:1006100011F081E08A8F4D8F5E8F6F8F78A383E01A
:10062000898FCE0149960E94A105A096E2E10C9423
:10063000A219A8E1B0E0EFE1F3E00C948E19698310
:100640007A838B839C832D833E834F835887B9E0C5
:10065000EB2EF12CEC0EFD1ECE010196B7010E948F
:1006600076068E010F5E1F4FCE010596B8010E94DF
:1006700076062985223008F47EC03989323010F49C
:10068000B8017CC08A859A8989278A87243011F02D
:10069000223031F4231709F06EC065EA70E06EC0B5
:1006A000343039F41D861E861F86188A1C861B86E8
:1006B00004C0323021F484E08987B7015FC02B8504
:1006C0003C858B899C89281B390B3C872B87ED84C3
:1006D000FE840F851889AD88BE88CF88D88CEA142F
:1006E000FB040C051D0540F4EE0CFF1C001F111F40
:1006F000215030403C872B8720E030E040E050E044
:1007000080E090E0A0E0B0E460E070E0EA14FB0478
:100710000C051D0540F0282B392B4A2B5B2BEA18C2
:10072000FB080C091D09B695A79597958795EE0CC2
:10073000FF1C001F111F6F5F7F4F6F31710531F775
:10074000DA01C9018F779070A070B0708034910584
:10075000A105B10561F427FD0AC0E114F10401050A
:10076000110529F0205C3F4F4F4F5F4F20782D87B8
:100770003E874F87588BBE01675F7F4FCB010E943A
:10078000A1056896EAE00C94AA19A8E1B0E0EBECA8
:10079000F3E00C94921969837A838B839C832D8375
:1007A0003E834F83588789E0E82EF12CEC0EFD1E26
:1007B000CE010196B7010E9476068E010F5E1F4F93
:1007C000CE010596B8010E9476068985823040F0F8
:1007D0008989823028F0C701B8010E94EE0601C065
:1007E00081E06896E6E00C94AE19A8E1B0E0EBEF8A
:1007F000F3E00C94921969837A838B839C832D8315
:100800003E834F83588789E0E82EF12CEC0EFD1EC5
:10081000CE010196B7010E9476068E010F5E1F4F32
:10082000CE010596B8010E9476068985823040F097
:100830008989823028F0C701B8010E94EE0601C004
:100840008FEF6896E6E00C94AE19A8E1B0E0EBE219
:10085000F4E00C94921969837A838B839C832D83B3
:100860003E834F83588789E0E82EF12CEC0EFD1E65
:10087000CE010196B7010E9476068E010F5E1F4FD2
:10088000CE010596B8010E9476068985823040F037
:100890008989823028F0C701B8010E94EE0601C0A4
:1008A0008FEF6896E6E00C94AE19A8E1B0E0EBE5B6
:1008B000F4E00C94921969837A838B839C832D8353
:1008C0003E834F83588789E0E82EF12CEC0EFD1E05
:1008D000CE010196B7010E9476068E010F5E1F4F72
:1008E000CE010596B8010E9476068985823040F0D7
:1008F0008989823028F0C701B8010E94EE0601C044
:1009000081E06896E6E00C94AE19ACE0B0E0EBE86C
:10091000F4E00C94961969837A838B839C83CE01CF
:100920000196BE016B5F7F4F0E9476068D818230FB
:1009300061F1823050F1843021F48E81882351F1AD
:100940002EC02F81388537FD20C06E812F313105B3
:100950001CF06623F9F023C08EE190E0821B930B1C
:1009600029853A854B855C8504C056954795379512
:1009700027958A95D2F76623B1F05095409530952A
:1009800021953F4F4F4F5F4F0EC020E030E040E0D9
:1009900050E009C02FEF3FEF4FEF5FE704C020E0CA
:1009A00030E040E050E8B901CA012C96E2E00C9436
:1009B000B219A8E0B0E0EFEDF4E00C948E197B01E1
:1009C0008C01611571058105910519F482E0898317
:1009D00060C083E089838EE1C82ED12CDC82CB827B
:1009E000ED82FE820F831887C801B7010E9452056D
:1009F000FC013197F7FF3BC0222733272E1B3F0B0B
:100A000057016801022E04C0D694C794B794A794E6
:100A10000A94D2F740E050E060E070E081E090E0BE
:100A2000A0E0B0E004C0880F991FAA1FBB1F2A9541
:100A3000D2F70197A109B1098E219F21A023B123EB
:100A40000097A105B10521F041E050E060E070E0C1
:100A50004A295B296C297D294D835E836F837887C2
:100A60008EE190E08E1B9F0B9C838B8312C030978E
:100A700081F00E2E04C0EE0CFF1C001F111F0A9403
:100A8000D2F7ED82FE820F831887CE1ADF0ADC824E
:100A9000CB821A82CE0101960E94A1052896EAE037
:100AA0000C94AA19EF92FF920F931F937B018C0174
:100AB00080E0E81680E0F80681E0080780E018078B
:100AC00088F48FEFE816F1040105110531F028F0E4
:100AD00088E090E0A0E0B0E017C080E090E0A0E007
:100AE000B0E012C080E0E81680E0F80680E0080779
:100AF00081E0180728F088E190E0A0E0B0E004C0B1
:100B000080E190E0A0E0B0E020E230E040E050E0A2
:100B1000281B390B4A0B5B0B04C016950795F794FD
:100B2000E7948A95D2F7F701E355FF4F8081281BA0
:100B3000310941095109C9011F910F91FF90EF90AF
:100B40000895DF92EF92FF920F931F93FC01E480D0
:100B5000F58006811781D1808081823048F480E061
:100B600090E0A0E1B0E0E82AF92A0A2B1B2BA5C0EF
:100B7000843009F49FC0823021F4EE24FF248701E1
:100B800005C0E114F1040105110519F4E0E0F0E0FD
:100B900096C0628173819FEF623879070CF05BC069
:100BA00022E83FEF261B370B2A3131052CF020E0DD
:100BB00030E040E050E02AC0B801A701022E04C096
:100BC00076956795579547950A94D2F781E090E01E
:100BD000A0E0B0E004C0880F991FAA1FBB1F2A9590
:100BE000D2F70197A109B1098E219F21A023B1233A
:100BF0000097A105B10521F081E090E0A0E0B0E010
:100C00009A01AB01282B392B4A2B5B2BDA01C90146
:100C10008F779070A070B07080349105A105B105F8
:100C200039F427FF09C0205C3F4F4F4F5F4F04C08E
:100C3000215C3F4F4F4F5F4FE0E0F0E02030A0E0FD
:100C40003A07A0E04A07A0E45A0710F0E1E0F0E01C
:100C500079018A0127C06038710564F5FB01E1580C
:100C6000FF4FD801C7018F779070A070B0708034AB
:100C70009105A105B10539F4E7FE0DC080E490E0CF
:100C8000A0E0B0E004C08FE390E0A0E0B0E0E80EA8
:100C9000F91E0A1F1B1F17FF05C016950795F7942D
:100CA000E794319687E016950795F794E7948A952F
:100CB000D1F705C0EE24FF248701EFEFF0E06E2F9F
:100CC000679566276795902F9F77D794DD24D794F3
:100CD0008E2F8695492F462B582F5D29B701CA01C3
:100CE0001F910F91FF90EF90DF900895FC01DB01C1
:100CF000408151812281622F6F7770E0221F22276D
:100D0000221F9381892F880F822B282F30E0991F73
:100D10009927991F11969C93119721153105A9F5D3
:100D2000411551056105710511F482E037C082E873
:100D30009FEF13969C938E9312979A01AB0167E0F5
:100D4000220F331F441F551F6A95D1F783E08C9300
:100D50000DC0220F331F441F551F12968D919C9179
:100D60001397019713969C938E931297203080E0EF
:100D7000380780E0480780E4580758F314962D930D
:100D80003D934D935C93179708952F3F310579F468
:100D9000411551056105710519F484E08C9308959E
:100DA00064FF03C081E08C9312C01C9210C02F57C7
:100DB000304013963C932E93129783E08C9387E0F8
:100DC000440F551F661F771F8A95D1F770641496DC
:100DD0004D935D936D937C93179708951F93DC015A
:100DE000FB019C91923008F447C08081823008F466
:100DF00043C0943051F411961C91843099F581814F
:100E0000682F70E0611B71093FC0843021F092307F
:100E100031F48230B9F18181882389F12DC0119696
:100E20001C9111978230F1F081811817D9F4129634
:100E30002D913C911397828193818217930794F0AF
:100E400028173907BCF014968D919D910D90BC9197
:100E5000A02D2481358146815781281739074A07FB
:100E60005B0718F4112341F00AC082179307A40707
:100E7000B50740F4112319F061E070E005C06FEF91
:100E80007FEF02C060E070E0CB011F910895DF9317
:100E9000CF93CDB7DEB7E0E4F0E086E88083E9E207
:100EA000F0E083E38083AAE2B0E0EAE2F0E0808150
:100EB00088608C93AAE2B0E0EAE2F0E08081806191
:100EC0008C93CF91DF910895DF93CF930F92CDB79D
:100ED000DEB78983EBE2F0E08081829586958770AA
:100EE000882F90E0817090700097A1F3ECE2F0E021
:100EF000898180830F90CF91DF910895DF93CF9305
:100F000000D00F92CDB7DEB79B838A8319820EC0C3
:100F10008981282F30E08A819B81FC01E20FF31F39
:100F200080810E94640789818F5F89838981282F4E
:100F300030E08A819B81FC01E20FF31F80818823CE
:100F400039F70F900F900F90CF91DF910895DF93B5
:100F5000CF93CDB7DEB7EBE2F0E080818823DCF7FA
:100F6000ECE2F0E08081CF91DF910895DF93CF93A1
:100F7000CDB7DEB7AFE5B0E0EFE5F0E080818068A7
:100F80008C93CF91DF910895DF93CF93CDB7DEB7E8
:100F9000AFE5B0E0EFE5F0E080818F778C93CF9103
:100FA000DF910895DF93CF9300D00F92CDB7DEB7D6
:100FB00089838981282F30E03B832A838A819B8122
:100FC0008130910589F02A813B8122303105A1F0E1
:100FD0008A819B810097B9F4ABE5B0E0EBE5F0E0E6
:100FE000808180648C930FC0ABE5B0E0EBE5F0E06E
:100FF000808180688C9307C0ABE5B0E0EBE5F0E062
:10100000808180628C930F900F900F90CF91DF9131
:101010000895DF93CF9300D00F92CDB7DEB78983C9
:101020008981282F30E03B832A838A819B8181300C
:10103000910589F02A813B8122303105A1F08A8116
:101040009B810097B9F4ABE5B0E0EBE5F0E080817F
:101050008F7B8C930FC0ABE5B0E0EBE5F0E08081D7
:101060008F778C9307C0ABE5B0E0EBE5F0E08081D3
:101070008F7D8C930F900F900F90CF91DF910895FB
:10108000DF93CF93CDB7DEB72A970FB6F894DEBFC4
:101090000FBECDBF89836A838981282F30E03A87CC
:1010A000298789859A858130910509F466C029854B
:1010B0003A852230310509F4BBC089859A850097AD
:1010C00009F0D5C08A81282F30E038872F838F819F
:1010D00098858130910521F12F81388522303105A5
:1010E0002CF48F819885009761F0C1C02F813885DD
:1010F0002230310521F18F8198858330910571F17E
:10110000B6C0A5E5B0E0E5E5F0E080818D7F8C9389
:10111000A5E5B0E0E5E5F0E080818E7F8C93A7C087
:10112000A5E5B0E0E5E5F0E080818D7F8C93A5E555
:10113000B0E0E5E5F0E0808181608C9398C0A5E5A2
:10114000B0E0E5E5F0E0808182608C93A5E5B0E059
:10115000E5E5F0E080818E7F8C9389C0A5E5B0E065
:10116000E5E5F0E0808182608C93A5E5B0E0E5E5FF
:10117000F0E0808181608C937AC08A81282F30E0F2
:101180003E832D838D819E818130910521F12D81BA
:101190003E81223031052CF48D819E81009761F0D3
:1011A00066C02D813E812230310521F18D819E81E5
:1011B0008330910571F15BC0A5E5B0E0E5E5F0E0B5
:1011C0008081877F8C93A5E5B0E0E5E5F0E0808144
:1011D0008B7F8C934CC0A5E5B0E0E5E5F0E0808125
:1011E000877F8C93A5E5B0E0E5E5F0E08081846041
:1011F0008C933DC0A5E5B0E0E5E5F0E08081886036
:101200008C93A5E5B0E0E5E5F0E080818B7F8C93E1
:101210002EC0A5E5B0E0E5E5F0E0808188608C9324
:10122000A5E5B0E0E5E5F0E0808184608C931FC027
:101230008A81282F30E03C832B838B819C818230F4
:10124000910531F02B813C812330310549F00FC0ED
:10125000A4E5B0E0E4E5F0E080818F7B8C9307C0EB
:10126000A4E5B0E0E4E5F0E0808180648C932A9608
:101270000FB6F894DEBF0FBECDBFCF91DF910895BA
:10128000DF93CF9300D0CDB7DEB79A83898389816E
:101290009A819093BF018093BE010F900F90CF91E0
:1012A000DF910895DF93CF9300D0CDB7DEB79A8357
:1012B000898389819A819093C1018093C0010F90A5
:1012C0000F90CF91DF910895DF93CF9300D0CDB7EA
:1012D000DEB79A83898389819A819093C301809331
:1012E000C2010F900F90CF91DF9108951F920F923E
:1012F0000FB60F9211242F933F934F935F936F93E9
:101300007F938F939F93AF93BF93EF93FF93DF935D
:10131000CF93CDB7DEB7E091BE01F091BF01099543
:10132000CF91DF91FF91EF91BF91AF919F918F91FD
:101330007F916F915F914F913F912F910F900FBED1
:101340000F901F9018951F920F920FB60F921124B5
:101350002F933F934F935F936F937F938F939F93BD
:10136000AF93BF93EF93FF93DF93CF93CDB7DEB7E8
:10137000E091C001F091C1010995CF91DF91FF91FA
:10138000EF91BF91AF919F918F917F916F915F91FD
:101390004F913F912F910F900FBE0F901F90189576
:1013A0001F920F920FB60F9211242F933F934F93DA
:1013B0005F936F937F938F939F93AF93BF93EF93BD
:1013C000FF93DF93CF93CDB7DEB7E091C201F091E9
:1013D000C3010995CF91DF91FF91EF91BF91AF913B
:1013E0009F918F917F916F915F914F913F912F913D
:1013F0000F900FBE0F901F901895DF93CF93CDB72E
:10140000DEB729970FB6F894DEBF0FBECDBF898334
:101410006A834B838B81282F30E039872887888522
:101420009985009709F476C02885398521303105E2
:1014300009F0E4C08981282F30E03F832E838E811C
:101440009F818234910551F12E813F8123343105F2
:1014500034F48E819F818134910561F0CFC02E815B
:101460003F812334310571F18E819F818434910550
:10147000E9F1C4C0AAE3B0E0EAE3F0E08081482FDC
:101480008A81282F30E081E090E0022E02C0880F90
:10149000991F0A94E2F7842B8C93B0C0A7E3B0E0C5
:1014A000E7E3F0E08081482F8A81282F30E081E057
:1014B00090E0022E02C0880F991F0A94E2F7842B55
:1014C0008C939CC0A4E3B0E0E4E3F0E08081482F7B
:1014D0008A81282F30E081E090E0022E02C0880F40
:1014E000991F0A94E2F7842B8C9388C0A1E3B0E0A3
:1014F000E1E3F0E08081482F8A81282F30E081E00D
:1015000090E0022E02C0880F991F0A94E2F7842B04
:101510008C9374C08981282F30E03D832C838C818B
:101520009D818234910561F12C813D812334310507
:1015300034F48C819D818134910569F05FC02C81E8
:101540003D812334310589F18C819D81843491055D
:1015500009F440C053C0AAE3B0E0EAE3F0E08081C0
:10156000482F8A81282F30E081E090E0022E02C0CF
:10157000880F991F0A94E2F7809584238C933EC0CC
:10158000A7E3B0E0E7E3F0E08081482F8A81282FCD
:1015900030E081E090E0022E02C0880F991F0A948B
:1015A000E2F7809584238C9329C0A4E3B0E0E4E3C0
:1015B000F0E08081482F8A81282F30E081E090E0A0
:1015C000022E02C0880F991F0A94E2F780958423A7
:1015D0008C9314C0A1E3B0E0E1E3F0E08081482FF8
:1015E0008A81282F30E081E090E0022E02C0880F2F
:1015F000991F0A94E2F7809584238C9329960FB65D
:10160000F894DEBF0FBECDBFCF91DF910895DF9379
:10161000CF93CDB7DEB729970FB6F894DEBF0FBED4
:10162000CDBF89836A834B838B81282F30E0398734
:10163000288788859985009709F476C0288539859B
:101640002130310509F0E4C08981282F30E03F8343
:101650002E838E819F818234910551F12E813F81AD
:101660002334310534F48E819F818134910561F0FA
:10167000CFC02E813F812334310571F18E819F814E
:1016800084349105E9F1C4C0ABE3B0E0EBE3F0E0F2
:101690008081482F8A81282F30E081E090E0022E5F
:1016A00002C0880F991F0A94E2F7842B8C93B0C074
:1016B000A8E3B0E0E8E3F0E08081482F8A81282F9A
:1016C00030E081E090E0022E02C0880F991F0A945A
:1016D000E2F7842B8C939CC0A5E3B0E0E5E3F0E057
:1016E0008081482F8A81282F30E081E090E0022E0F
:1016F00002C0880F991F0A94E2F7842B8C9388C04C
:10170000A2E3B0E0E2E3F0E08081482F8A81282F55
:1017100030E081E090E0022E02C0880F991F0A9409
:10172000E2F7842B8C9374C08981282F30E03D83AD
:101730002C838C819D818234910561F12C813D81C6
:101740002334310534F48C819D818134910569F015
:101750005FC02C813D812334310589F18C819D81CD
:101760008434910509F440C053C0ABE3B0E0EBE32F
:10177000F0E08081482F8A81282F30E081E090E0DE
:10178000022E02C0880F991F0A94E2F780958423E5
:101790008C933EC0A8E3B0E0E8E3F0E08081482FFE
:1017A0008A81282F30E081E090E0022E02C0880F6D
:1017B000991F0A94E2F7809584238C9329C0A5E3AE
:1017C000B0E0E5E3F0E08081482F8A81282F30E007
:1017D00081E090E0022E02C0880F991F0A94E2F780
:1017E000809584238C9314C0A2E3B0E0E2E3F0E0A0
:1017F0008081482F8A81282F30E081E090E0022EFE
:1018000002C0880F991F0A94E2F7809584238C9375
:1018100029960FB6F894DEBF0FBECDBFCF91DF91F2
:101820000895DF93CF9300D000D00F92CDB7DEB7ED
:101830008A836B838A81282F30E03D832C834C81FF
:101840005D814234510541F18C819D818334910544
:1018500034F42C813D812134310561F052C04C813A
:101860005D814334510551F18C819D818434910512
:10187000B9F147C0E9E3F0E08081282F30E08B81A7
:10188000882F90E0A90102C0559547958A95E2F707
:10189000CA018170898335C0E6E3F0E08081282F9A
:1018A00030E08B81882F90E0A90102C055954795C3
:1018B0008A95E2F7CA018170898323C0E3E3F0E0EF
:1018C0008081282F30E08B81882F90E0A90102C011
:1018D000559547958A95E2F7CA018170898311C0B1
:1018E000E0E3F0E08081282F30E08B81882F90E0CA
:1018F000A90102C0559547958A95E2F7CA01817002
:10190000898389810F900F900F900F900F90CF9146
:10191000DF910895DF93CF9300D000D0CDB7DEB72D
:1019200089836A838981282F30E03C832B838B81D4
:101930009C8182349105D9F02B813C81233431057F
:1019400034F48B819C818134910561F01EC02B8120
:101950003C812334310581F08B819C818434910555
:1019600081F013C0EAE3F0E08A8180830EC0E7E3F0
:10197000F0E08A81808309C0E4E3F0E08A8180831B
:1019800004C0E1E3F0E08A8180830F900F900F9014
:101990000F90CF91DF910895DF93CF9300D000D0C7
:1019A000CDB7DEB789836A838981282F30E03C83F5
:1019B0002B838B819C8182349105D9F02B813C81D2
:1019C0002334310534F48B819C818134910561F09D
:1019D0001EC02B813C812334310581F08B819C8199
:1019E0008434910581F013C0EBE3F0E08A818083B9
:1019F0000EC0E8E3F0E08A81808309C0E5E3F0E00F
:101A00008A81808304C0E2E3F0E08A8180830F90C2
:101A10000F900F900F90CF91DF910895DF93CF93A8
:101A200000D000D00F92CDB7DEB789837B836A8365
:101A30008981282F30E03D832C838C819D818234E5
:101A40009105E9F02C813D812334310534F48C81FA
:101A50009D818134910561F026C02C813D81233424
:101A60003105A1F08C819D8184349105B1F01BC0BA
:101A7000E9E3F0E08081EA81FB81808314C0E6E342
:101A8000F0E08081EA81FB8180830DC0E3E3F0E038
:101A90008081EA81FB81808306C0E0E3F0E0808101
:101AA000EA81FB8180830F900F900F900F900F9031
:101AB000CF91DF910895DF93CF9300D000D000D075
:101AC000CDB7DEB789836A838981282F30E03E83D2
:101AD0002D838D819E8181309105C1F02D813E81C4
:101AE0002330310511F18D819E81009761F5A7E2C8
:101AF000B0E0E7E2F0E080818F7B8C93A7E2B0E07A
:101B0000E7E2F0E080818F778C931DC0A7E2B0E020
:101B1000E7E2F0E0808180648C93A7E2B0E0E7E246
:101B2000F0E080818F778C930EC0A7E2B0E0E7E20F
:101B3000F0E0808180648C93A7E2B0E0E7E2F0E01F
:101B4000808180688C93A7E2B0E0E7E2F0E08081DA
:101B50008F7D8C938A81282F30E03C832B838B816F
:101B60009C818130910561F12B813C8122303105CE
:101B70002CF48B819C81009769F063C02B813C81A0
:101B80002230310599F18B819C818530910509F4D2
:101B900043C057C0A6E2B0E0E6E2F0E080818E7F6D
:101BA0008C93A6E2B0E0E6E2F0E080818D7F8C933A
:101BB000A6E2B0E0E6E2F0E080818B7F8C9341C04A
:101BC000A6E2B0E0E6E2F0E080818E7F8C93A6E2B0
:101BD000B0E0E6E2F0E0808182608C93A6E2B0E0C3
:101BE000E6E2F0E080818B7F8C932BC0A6E2B0E030
:101BF000E6E2F0E0808181608C93A6E2B0E0E6E26C
:101C0000F0E0808182608C93A6E2B0E0E6E2F0E052
:101C100080818B7F8C9315C0A6E2B0E0E6E2F0E015
:101C2000808181608C93A6E2B0E0E6E2F0E0808102
:101C300082608C93A6E2B0E0E6E2F0E0808184600E
:101C40008C93A6E2B0E0E6E2F0E0808180688C93BD
:101C500026960FB6F894DEBF0FBECDBFCF91DF91B1
:101C60000895DF93CF930F92CDB7DEB78983A7E2B4
:101C7000B0E0E7E2F0E08081807E8C93A7E2B0E004
:101C8000E7E2F0E090818981892B8C93A6E2B0E0B5
:101C9000E6E2F0E0808180648C93E6E2F0E080810F
:101CA00082958F70882F90E0817090700097A9F3D3
:101CB000A6E2B0E0E6E2F0E0808180618C93E4E2AD
:101CC000F0E0808191810F90CF91DF910895DF93B3
:101CD000CF93CDB7DEB729970FB6F894DEBF0FBE0E
:101CE000CDBF898789850E94310ECC01A0E0B0E08C
:101CF000BC01CD010E94D904DC01CB018D839E8300
:101D0000AF83B8876D817E818F81988520E030E038
:101D100040EA50E40E941F02DC01CB01BC01CD016E
:101D200020E030E040E854E40E941903DC01CB01DC
:101D300089839A83AB83BC8389819A81AB81BC817F
:101D4000BC01CD0129960FB6F894DEBF0FBECDBF02
:101D5000CF91DF910895DF93CF93CDB7DEB7299769
:101D60000FB6F894DEBF0FBECDBF898789850E946C
:101D7000670EDC01CB018D839E83AF83B8876D81B5
:101D80007E818F81988520E030E048EC52E40E940B
:101D90001F02DC01CB0189839A83AB83BC838981D9
:101DA0009A81AB81BC81BC01CD0129960FB6F89414
:101DB000DEBF0FBECDBFCF91DF910895DF93CF93EC
:101DC00000D0CDB7DEB79A83898389819A819093B9
:101DD000C5018093C4010F900F90CF91DF910895BA
:101DE0001F920F920FB60F9211242F933F934F9390
:101DF0005F936F937F938F939F93AF93BF93EF9373
:101E0000FF93DF93CF93CDB7DEB7E091C401F0919C
:101E1000C5010995CF91DF91FF91EF91BF91AF91EE
:101E20009F918F917F916F915F914F913F912F91F2
:101E30000F900FBE0F901F9018950F931F93DF9375
:101E4000CF93CDB7DEB7C654D0400FB6F894DEBFFF
:101E50000FBECDBF83E46FEF0E948A0C84E466E07E
:101E600041E00E94FD0984E465E041E00E94FD0933
:101E7000FE01ED5BFF4F80E090E0A8E4B2E48083D8
:101E80009183A283B3838E01015C1F4FFE01ED5B42
:101E9000FF4F608171818281938120E030E04AEFC1
:101EA00054E40E941F02DC01CB01F801808391837E
:101EB000A283B383FE01FF96608171818281938149
:101EC00020E030E040E85FE30E94550488232CF4D2
:101ED00081E090E09EAF8DAF46C0FE01FF9660812D
:101EE00071818281938120E03FEF4FE757E40E94A8
:101EF000F503181664F5FE01ED5BFF4F60817181FB
:101F00008281938120E030E040E251E40E941F0290
:101F1000DC01CB01BC01CD010E944900DC01CB01F9
:101F20009EAF8DAF0FC088EC90E09CAF8BAF8BADB8
:101F30009CAD0197F1F79CAF8BAF8DAD9EAD019736
:101F40009EAF8DAF8DAD9EAD009769F716C0FE01B7
:101F5000FF9660817181828193810E944900DC013A
:101F6000CB019EAF8DAF8DAD9EAD9AAF89AF89ADE0
:101F70009AAD0197F1F79AAF89AF88E30E949D115E
:101F800080E090E0A0E8BFE38DAB9EABAFABB8AF15
:101F90006DA97EA98FA998AD20E030E04AEF54E406
:101FA0000E941F02DC01CB0189AB9AABABABBCAB8F
:101FB00069A97AA98BA99CA920E030E040E85FE3F9
:101FC0000E94550488232CF481E090E098AB8FA701
:101FD0003FC069A97AA98BA99CA920E03FEF4FE7F0
:101FE00057E40E94F50318164CF56DA97EA98FA938
:101FF00098AD20E030E040E251E40E941F02DC0195
:10200000CB01BC01CD010E944900DC01CB0198ABA2
:102010008FA70FC088EC90E09EA78DA78DA59EA5E9
:102020000197F1F79EA78DA78FA598A9019798AB67
:102030008FA78FA598A9009769F714C069A97AA9F5
:102040008BA99CA90E944900DC01CB0198AB8FA70A
:102050008FA598A99CA78BA78BA59CA50197F1F7A5
:102060009CA78BA78CE00E949D1180E090E0A0E8E7
:10207000BFE38FA398A7A9A7BAA76FA178A589A541
:102080009AA520E030E04AEF54E40E941F02DC01F0
:10209000CB018BA39CA3ADA3BEA36BA17CA18DA1FF
:1020A0009EA120E030E040E85FE30E9455048823D1
:1020B0002CF481E090E09AA389A33FC06BA17CA19E
:1020C0008DA19EA120E03FEF4FE757E40E94F5036A
:1020D00018164CF56FA178A589A59AA520E030E0E7
:1020E00040E251E40E941F02DC01CB01BC01CD01A2
:1020F0000E944900DC01CB019AA389A30FC088ECA0
:1021000090E098A38F8F8F8D98A10197F1F798A3F6
:102110008F8F89A19AA101979AA389A389A19AA1D6
:10212000009769F714C06BA17CA18DA19EA10E94AC
:102130004900DC01CB019AA389A389A19AA19E8FB2
:102140008D8F8D8D9E8D0197F1F79E8F8D8F81E004
:102150000E949D1180E090E0A0E4B0E4898F9A8F06
:10216000AB8FBC8F698D7A8D8B8D9C8D20E030E09C
:102170004AEF54E40E941F02DC01CB018D8B9E8B41
:10218000AF8BB88F6D897E898F89988D20E030E084
:1021900040E85FE30E94550488232CF481E090E03E
:1021A0009C8B8B8B3FC06D897E898F89988D20E0B9
:1021B0003FEF4FE757E40E94F50318164CF5698D81
:1021C0007A8D8B8D9C8D20E030E040E251E40E94BE
:1021D0001F02DC01CB01BC01CD010E944900DC01E2
:1021E000CB019C8B8B8B0FC088EC90E09A8B898BFA
:1021F00089899A890197F1F79A8B898B8B899C89B8
:1022000001979C8B8B8B8B899C89009769F714C0F5
:102210006D897E898F89988D0E944900DC01CB01F0
:102220009C8B8B8B8B899C89988B8F878F859889CA
:102230000197F1F7988B8F8786E00E949D1180E0CF
:1022400090E0A0E8BFE38B879C87AD87BE876B8556
:102250007C858D859E8520E030E04AEF54E40E9425
:102260001F02DC01CB018F839887A987BA876F8112
:10227000788589859A8520E030E040E85FE30E9418
:10228000550488232CF481E090E09E838D833FC029
:102290006F81788589859A8520E03FEF4FE757E485
:1022A0000E94F50318164CF56B857C858D859E85FF
:1022B00020E030E040E251E40E941F02DC01CB014B
:1022C000BC01CD010E944900DC01CB019E838D83BE
:1022D0000FC088EC90E09C838B838B819C8101975D
:1022E000F1F79C838B838D819E8101979E838D83E3
:1022F0008D819E81009769F714C06F8178858985EB
:102300009A850E944900DC01CB019E838D838D81DB
:102310009E819A83898389819A810197F1F79A83B3
:102320008983CA5BDF4F0FB6F894DEBF0FBECDBF07
:10233000CF91DF911F910F910895DF93CF93CDB788
:10234000DEB76D970FB6F894DEBF0FBECDBF8D8F91
:1023500084E465E040E00E94070B83E46D8D0E94F9
:10236000CC0C84E466E041E00E94070B80E090E042
:10237000A0E8BFE3898F9A8FAB8FBC8F698D7A8D70
:102380008B8D9C8D20E030E04AEF54E40E941F02C8
:10239000DC01CB018D8B9E8BAF8BB88F6D897E89D5
:1023A0008F89988D20E030E040E85FE30E9455047B
:1023B00088232CF481E090E09C8B8B8B3FC06D894F
:1023C0007E898F89988D20E03FEF4FE757E40E9488
:1023D000F50318164CF5698D7A8D8B8D9C8D20E058
:1023E00030E040E251E40E941F02DC01CB01BC015D
:1023F000CD010E944900DC01CB019C8B8B8B0FC06F
:1024000088EC90E09A8B898B89899A890197F1F7FA
:102410009A8B898B8B899C8901979C8B8B8B8B8961
:102420009C89009769F714C06D897E898F89988D82
:102430000E944900DC01CB019C8B8B8B8B899C8992
:10244000988B8F878F8598890197F1F7988B8F8765
:1024500084E466E040E00E94070B80E090E0A0E8A2
:10246000BFE38B879C87AD87BE876B857C858D8519
:102470009E8520E030E04AEF54E40E941F02DC0118
:10248000CB018F839887A987BA876F8178858985E3
:102490009A8520E030E040E85FE30E9455048823FD
:1024A0002CF481E090E09E838D833FC06F8178851E
:1024B00089859A8520E03FEF4FE757E40E94F503B6
:1024C00018164CF56B857C858D859E8520E030E067
:1024D00040E251E40E941F02DC01CB01BC01CD01AE
:1024E0000E944900DC01CB019E838D830FC088ECE4
:1024F00090E09C838B838B819C810197F1F79C8377
:102500008B838D819E8101979E838D838D819E819A
:10251000009769F714C06F81788589859A850E9434
:102520004900DC01CB019E838D838D819E819A833E
:10253000898389819A810197F1F79A8389836D96BE
:102540000FB6F894DEBF0FBECDBFCF91DF910895D7
:10255000DF93CF93CDB7DEB76D970FB6F894DEBF9C
:102560000FBECDBF8D8F84E465E041E00E94070B74
:1025700083E46D8D0E94CC0C84E466E041E00E940F
:10258000070B80E090E0A0E8BFE3898F9A8FAB8FC4
:10259000BC8F698D7A8D8B8D9C8D20E030E04AEF69
:1025A00054E40E941F02DC01CB018D8B9E8BAF8B0C
:1025B000B88F6D897E898F89988D20E030E040E862
:1025C0005FE30E94550488232CF481E090E09C8B0B
:1025D0008B8B3FC06D897E898F89988D20E03FEF7E
:1025E0004FE757E40E94F50318164CF5698D7A8D74
:1025F0008B8D9C8D20E030E040E251E40E941F0270
:10260000DC01CB01BC01CD010E944900DC01CB0102
:102610009C8B8B8B0FC088EC90E09A8B898B89897F
:102620009A890197F1F79A8B898B8B899C890197FD
:102630009C8B8B8B8B899C89009769F714C06D8963
:102640007E898F89988D0E944900DC01CB019C8B8B
:102650008B8B8B899C89988B8F878F859889019725
:10266000F1F7988B8F8784E466E040E00E94070BC7
:1026700080E090E0A0E8BFE38B879C87AD87BE87B2
:102680006B857C858D859E8520E030E04AEF54E4A3
:102690000E941F02DC01CB018F839887A987BA872C
:1026A0006F81788589859A8520E030E040E85FE396
:1026B0000E94550488232CF481E090E09E838D8352
:1026C0003FC06F81788589859A8520E03FEF4FE78D
:1026D00057E40E94F50318164CF56B857C858D85B3
:1026E0009E8520E030E040E251E40E941F02DC01C0
:1026F000CB01BC01CD010E944900DC01CB019E83CE
:102700008D830FC088EC90E09C838B838B819C81B0
:102710000197F1F79C838B838D819E8101979E8326
:102720008D838D819E81009769F714C06F817885B4
:1027300089859A850E944900DC01CB019E838D83A7
:102740008D819E819A83898389819A810197F1F78E
:102750009A8389836D960FB6F894DEBF0FBECDBF06
:10276000CF91DF910895DF93CF9300D00F92CDB733
:10277000DEB79B838A8319820EC08981282F30E0BF
:102780008A819B81FC01E20FF31F80810E94A812C5
:1027900089818F5F89838981282F30E08A819B819D
:1027A000FC01E20FF31F8081882339F70F900F900F
:1027B0000F90CF91DF910895DF93CF93CDB7DEB720
:1027C0002C970FB6F894DEBF0FBECDBF69877A870E
:1027D0008B879C8781E090E0A0E0B0E08D839E83B2
:1027E000AF83B88789859A85AB85BC8589839A83B1
:1027F000AB83BC8389859A85AB85BC850097A10591
:10280000B10521F480E30E94A8129BC089859A85B6
:10281000AB85BC85BB23BCF589859A85AB85BC851A
:10282000B095A095909581959F4FAF4FBF4F8987E9
:102830009A87AB87BC878DE20E94A81224C0898149
:102840009A81AB81BC812AE030E040E050E0BC01DD
:10285000CD010E946B19DA01C90189839A83AB8388
:10286000BC838D819E81AF81B8852AE030E040E055
:1028700050E0BC01CD010E942A19DC01CB018D83FF
:102880009E83AF83B88789819A81AB81BC81009791
:10289000A105B105A1F68D819E81AF81B8852AE0A1
:1028A00030E040E050E0BC01CD010E944919DA015E
:1028B000C9018D839E83AF83B8873AC089859A8585
:1028C000AB85BC852D813E814F815885BC01CD01F2
:1028D0000E944919DA01C90189839A83AB83BC83B9
:1028E00089859A85AB85BC852D813E814F81588530
:1028F000BC01CD010E944919DC01CB0189879A876F
:10290000AB87BC878D819E81AF81B8852AE030E09E
:1029100040E050E0BC01CD010E944919DA01C90133
:102920008D839E83AF83B8878981805D0E94A812C2
:102930008D819E81AF81B8850097A105B10509F011
:10294000BDCF2C960FB6F894DEBF0FBECDBFCF9192
:10295000DF910895DF93CF93CDB7DEB764970FB6BD
:10296000F894DEBF0FBECDBF698B7A8B8B8B9C8BAF
:1029700081E090E0A0E0B0E08D879E87AF87B88BC4
:1029800069897A898B899C890E948504DC01CB0145
:1029900089879A87AB87BC871D821E821F82188613
:1029A00069897A898B899C8920E030E040E050E099
:1029B0000E94C503882321F480E30E94A812D2C09C
:1029C00069897A898B899C8920E030E040E050E079
:1029D0000E9455048823E4F589899A89AB89BC89CA
:1029E000B058898B9A8BAB8BBC8B8DE20E94A8125E
:1029F0002FC089859A85AB85BC852AE030E040E010
:102A000050E0BC01CD010E946B19DA01C901898730
:102A10009A87AB87BC878D819E81AF81B8850196EF
:102A2000A11DB11D8D839E83AF83B8878D859E8543
:102A3000AF85B8892AE030E040E050E0BC01CD012C
:102A40000E942A19DC01CB018D879E87AF87B88B46
:102A500089859A85AB85BC850097A105B10549F6A6
:102A600069897A898B899C8920E030E44CE156E4BD
:102A70000E941F02DC01CB01BC01CD010E94850434
:102A8000DC01CB0189839A83AB83BC838D859E85D2
:102A9000AF85B88928EE33E040E050E0BC01CD01BD
:102AA0000E942A19DC01CB018D879E87AF87B88BE6
:102AB00050C089819A81AB81BC812D853E854F852F
:102AC0005889BC01CD010E944919DA01C9018987E1
:102AD0009A87AB87BC8789819A81AB81BC812D8520
:102AE0003E854F855889BC01CD010E944919DC0102
:102AF000CB0189839A83AB83BC838D859E85AF850B
:102B0000B8892AE030E040E050E0BC01CD010E94ED
:102B10004919DA01C9018D879E87AF87B88B8D81EE
:102B20009E81AF81B8850097A105B10519F48EE2A9
:102B30000E94A8128D819E81AF81B8850197A1095D
:102B4000B1098D839E83AF83B8878985805D0E949C
:102B5000A8128D859E85AF85B8890097A105B1051E
:102B600009F0A7CF64960FB6F894DEBF0FBECDBFB5
:102B7000CF91DF910895DF93CF9300D0CDB7DEB72B
:102B800089836A838981882321F48A8180680E94ED
:102B90009D118981813021F48A8180540E949D1188
:102BA0000F900F90CF91DF910895DF93CF93CDB722
:102BB000DEB72E970FB6F894DEBF0FBECDBF81E013
:102BC0000E949D1180E090E0A0E8BFE38B879C8786
:102BD000AD87BE876B857C858D859E8520E030E046
:102BE0004AEF54E40E941F02DC01CB018F839887D7
:102BF000A987BA876F81788589859A8520E030E03A
:102C000040E85FE30E94550488232CF481E090E0C3
:102C10009E838D833FC06F81788589859A8520E06A
:102C20003FEF4FE757E40E94F50318164CF56B850C
:102C30007C858D859E8520E030E040E251E40E9455
:102C40001F02DC01CB01BC01CD010E944900DC0167
:102C5000CB019E838D830FC088EC90E09C838B8397
:102C60008B819C810197F1F79C838B838D819E8161
:102C700001979E838D838D819E81009769F714C093
:102C80006F81788589859A850E944900DC01CB0196
:102C90009E838D838D819E819A83898389819A8188
:102CA0000197F1F79A8389832E960FB6F894DEBFC9
:102CB0000FBECDBFCF91DF910895DF93CF9300D0AA
:102CC00000D0CDB7DEB79B838A836C838C81882F3D
:102CD00090E00896880F991F880F991F880F991FF9
:102CE0000E949D1119820EC08981282F30E08A81AF
:102CF0009B81FC01E20FF31F80810E94A812898151
:102D00008F5F89838981883078F380E80E949D11E4
:102D10000F900F900F900F90CF91DF910895DF9358
:102D2000CF93CDB7DEB781E46FE00E948A0C81E4D7
:102D30006FEF0E94CC0CCF91DF910895DF93CF937A
:102D4000CDB7DEB761970FB6F894DEBF0FBECDBF2B
:102D500084E5898B188AB5C081E4688940E00E94C7
:102D6000070B1F86A2C08F85982F9C5F81E4692F77
:102D70000E94110C882309F095C080E090E0A0E249
:102D8000B1E48B879C87AD87BE876B857C858D85FD
:102D90009E8520E030E04AEF54E40E941F02DC01EF
:102DA000CB018F839887A987BA876F8178858985BA
:102DB0009A8520E030E040E85FE30E9455048823D4
:102DC0002CF481E090E09E838D833FC06F817885F5
:102DD00089859A8520E03FEF4FE757E40E94F5038D
:102DE00018164CF56B857C858D859E8520E030E03E
:102DF00040E251E40E941F02DC01CB01BC01CD0185
:102E00000E944900DC01CB019E838D830FC088ECBA
:102E100090E09C838B838B819C810197F1F79C834D
:102E20008B838D819E8101979E838D838D819E8171
:102E3000009769F714C06F81788589859A850E940B
:102E40004900DC01CB019E838D838D819E819A8315
:102E5000898389819A810197F1F79A838983888987
:102E6000482F50E08F85282F30E0CA01880F991F26
:102E7000880F991F820F931FFC01E355FE4F80813D
:102E8000898B07C08F85982F9C5F81E4692F0E94F2
:102E9000110C8F85982F9C5F81E4692F0E94110C83
:102EA000882381F38F858F5F8F878F85843008F427
:102EB0005ACF81E4688941E00E94070B88898F5FBF
:102EC000888B8889843008F447CF898961960FB64A
:102ED000F894DEBF0FBECDBFCF91DF910895DF9391
:102EE000CF93CDB7DEB7AC970FB6F894DEBF0FBE69
:102EF000CDBF0E948F160E9447071CA60E941D0F7F
:102F00008CA50E94A8120E94A7078CA78CA5882FC9
:102F100090E0009731F40E94D51580E690E00E9481
:102F2000B3138CA5813431F40E94D51589E690E065
:102F30000E94B3138CA5863431F787C10E949E1678
:102F40008BA70E94D51583E790E00E94B31380E021
:102F500090E0A0EAB1E48FA398A7A9A7BAA76FA1B0
:102F600078A589A59AA520E030E04AEF54E40E94B4
:102F70001F02DC01CB018BA39CA3ADA3BEA36BA15D
:102F80007CA18DA19EA120E030E040E85FE30E949B
:102F9000550488232CF481E090E09AA389A33FC0D4
:102FA0006BA17CA18DA19EA120E03FEF4FE757E4EC
:102FB0000E94F50318164CF56FA178A589A59AA56E
:102FC00020E030E040E251E40E941F02DC01CB012E
:102FD000BC01CD010E944900DC01CB019AA389A369
:102FE0000FC088EC90E098A38F8F8F8D98A10197E8
:102FF000F1F798A38F8F89A19AA101979AA389A32A
:1030000089A19AA1009769F714C06BA17CA18DA139
:103010009EA10E944900DC01CB019AA389A389A14A
:103020009AA19E8F8D8F8D8D9E8D0197F1F79E8F2A
:103030008D8F0E94D51583E890E00E94B31381E044
:1030400060E00E94BB1580E090E0A0EAB1E4898FC7
:103050009A8FAB8FBC8F698D7A8D8B8D9C8D20E084
:1030600030E04AEF54E40E941F02DC01CB018D8B5B
:103070009E8BAF8BB88F6D897E898F89988D20E06C
:1030800030E040E85FE30E94550488232CF481E09F
:1030900090E09C8B8B8B3FC06D897E898F89988D4A
:1030A00020E03FEF4FE757E40E94F50318164CF578
:1030B000698D7A8D8B8D9C8D20E030E040E251E46B
:1030C0000E941F02DC01CB01BC01CD010E9449001E
:1030D000DC01CB019C8B8B8B0FC088EC90E09A8B32
:1030E000898B89899A890197F1F79A8B898B8B89CA
:1030F0009C8901979C8B8B8B8B899C89009769F7A6
:1031000014C06D897E898F89988D0E944900DC01E9
:10311000CB019C8B8B8B8B899C89988B8F878F8520
:1031200098890197F1F7988B8F8780E990E00E944A
:10313000B31380E090E0A0EAB1E48B879C87AD8771
:10314000BE876B857C858D859E8520E030E04AEFCB
:1031500054E40E941F02DC01CB018F839887A9876A
:10316000BA876F81788589859A8520E030E040E8CC
:103170005FE30E94550488232CF481E090E09E8355
:103180008D833FC06F81788589859A8520E03FEFE8
:103190004FE757E40E94F50318164CF56B857C85C4
:1031A0008D859E8520E030E040E251E40E941F02C0
:1031B000DC01CB01BC01CD010E944900DC01CB0147
:1031C0009E838D830FC088EC90E09C838B838B81E2
:1031D0009C810197F1F79C838B838D819E81019760
:1031E0009E838D838D819E81009769F714C06F81C6
:1031F000788589859A850E944900DC01CB019E83F0
:103200008D838D819E819A83898389819A8101979B
:10321000F1F79A8389830E949E168BA78BA584352C
:10322000A1F08BA5813321F48DE60E9464070DC0C7
:103230008BA5823321F484E60E94640706C08BA527
:103240008E3619F483E60E9464078CA5863409F44F
:1032500075CE59CE629FD001739FF001829FE00D21
:10326000F11D649FE00DF11D929FF00D839FF00D05
:10327000749FF00D659FF00D9927729FB00DE11DB1
:10328000F91F639FB00DE11DF91FBD01CF0111248E
:103290000895A1E21A2EAA1BBB1BFD010DC0AA1F97
:1032A000BB1FEE1FFF1FA217B307E407F50720F0AF
:1032B000A21BB30BE40BF50B661F771F881F991F2A
:1032C0001A9469F760957095809590959B01AC0173
:1032D000BD01CF01089597FB092E05260ED057FD9D
:1032E00004D0D7DF0AD0001C38F4509540953095B3
:1032F00021953F4F4F4F5F4F0895F6F7909580957A
:10330000709561957F4F8F4F9F4F08952F923F92F9
:103310004F925F926F927F928F929F92AF92BF92E5
:10332000CF92DF92EF92FF920F931F93CF93DF9391
:10333000CDB7DEB7CA1BDB0B0FB6F894DEBF0FBEEE
:10334000CDBF09942A88398848885F846E847D843B
:103350008C849B84AA84B984C884DF80EE80FD803D
:103360000C811B81AA81B981CE0FD11D0FB6F894B3
:0E337000DEBF0FBECDBFED010895F894FFCF74
:10337E0049646C65202E2E2E00416C657274202ED1
:10338E002E2E0043686F6F736520616374696F6ED4
:10339E003A2000312D4F70656E20646F6F7273008E
:1033AE00322D56656E74696C6174696F6E20737917
:1033BE007374656D00000000000000000000010243
:1033CE0002030303030404040404040404050505B2
:1033DE00050505050505050505050505050606068C
:1033EE00060606060606060606060606060606066F
:1033FE00060606060606060606060606060707075C
:10340E00070707070707070707070707070707073E
:10341E00070707070707070707070707070707072E
:10342E00070707070707070707070707070707071E
:10343E00070707070707070707070707070808080B
:10344E0008080808080808080808080808080808EE
:10345E0008080808080808080808080808080808DE
:10346E0008080808080808080808080808080808CE
:10347E0008080808080808080808080808080808BE
:10348E0008080808080808080808080808080808AE
:10349E00080808080808080808080808080808089E
:1034AE00080808080808080808080808080808088E
:1034BE0008080808080808080808080808373839EE
:0E34CE002F3435362A3132332D6E303D2B002F
:00000001FF
